:030000000207955F
:0100030032CA
:03000B000204CD1F
:0100130032BA
:01001B0032B2
:0100230032AA
:03002B00020514B7
:10002E00C00078BE00000000D8FAD00022C000C088
:10003E0001793278DFD8FED9FADAF6D001D0002273
:10004E00D2B312002EC2B312002E22A2E792A3A2A6
:10005E00E692A5A2E592A7A2E492B112004EA2E307
:10006E0092A3A2E292A5A2E192A7A2E092B11200FF
:10007E004E22D2B7020059C2B7020059C2B3C2B55E
:10008E00C0027A2812003BD00274331200857433FA
:10009E0012008574321200857428120085740C12B9
:1000AE0000857401120085C0027A0212003BD00254
:1000BE0022E4936006120080A380F622444044801E
:1000CE00020085C0E0E8C4540F4430120080E854AA
:0900DE000F4430120080D0E02232
:1000E700C0E0C0D0C000C001C002C035C034C033BA
:1000F700C032E4F53AF53BF53CF53DF53E7A20E5AF
:1001070035A2E779047832E633F608D9FA79057823
:100117003AE636D4F608D9F9DAE5D032D033D03416
:10012700D035D002D001D000D0D0D0E022C0E0C07E
:10013700D0C000C001C002C03EC03DC03CC03BC0F3
:100147003A7A207905C3783EE613C0D030E7022417
:10015700D030E30224FDF618D0D0D9EC79047835F5
:10016700E613F618D9FADADBD200E53A7002C200D4
:10017700D03AD03BD03CD03DD03ED002D001D000C9
:10018700D0D0D0E022C0E0C0D0E5322536F532E548
:10019700333537F533E5343538F534E5353539F565
:1001A700359200D0D0D0E022C0E0C0D0C3E5329570
:1001B70036F532E5339537F533E5349538F534E5DB
:1001C700359539F5359200D0D0D0E022C0E0C0D0C7
:1001D700C3E5329536E5339537E5349538E53595FA
:1001E700399200D0D0D0E022C0E0C0D0C3E5369528
:1001F70032E5379533E5389534E53995359200D0B2
:10020700D0D0E022C0E0C0D0C200C3E5369532703E
:1002170014E5379533700EE53895347008E5399550
:10022700357002D200D0D0D0E02212020B2000039A
:100237000201EF2212020B2000030201D322C0E0C9
:10024700C0F0C0D0C000C001C002C003C004C005D8
:10025700E5328536F0A4F8A9F0E5338536F0A42910
:10026700F9E435F0FAE5328537F0A429F9E5F03AF3
:10027700FAE433FBE5348536F0A42AFAE5F03BFBD4
:10028700E5338537F0A42AFAE5F03BFBE5328538FC
:10029700F0A42AFAE5F03BFBE5358536F0A42BFB05
:1002A700ACF07D00E5348537F0A42BFBE5F03CFC92
:1002B700E43DFDE5338538F0A42BFBE5F03CFCE499
:1002C7003DFDE5328539F0A42BFBE5F03CFCE43D30
:1002D700FDEC4DFCE5358537F0A445F04CFCE534E5
:1002E7008538F0A445F04CFCE5338539F0A445F09A
:1002F7004CFCE5358538F0A445F04CFCE5348539F0
:10030700F0A445F04CFCE5358539F0A445F04CFCEC
:100317008B358A3489338832D200BC0002C200D0C0
:1003270005D004D003D002D001D000D0D0D0F0D077
:10033700E022C0E0C0D0C000C001C002C003C004BA
:10034700E5364537453845397005D2000203A4C262
:10035700007C20E4F8F9FAFBC3E53233F532E533E4
:1003670033F533E53433F534E53533F535E833F82C
:10037700E933F9EA33FAEB33FBC3E89536E9953706
:10038700EA9538EB95394013E89536F8E99537F94A
:10039700EA9538FAEB9539FB433201DCBBD004D040
:1003A70003D002D001D000D0D0D0E02285323685EC
:1003B700333785343885353922E532C536F532E5A8
:1003C70033C537F533E534C538F534E535C539F583
:0203D7003522CD
:1003D900696E697469616C206D6573736167650025
:1003E90057656C636F6D6520202020202020200038
:1003F9005072657373205042302020202020200045
:1004090053657420506172616D6574657273200063
:10041900536F616B2054656D703A005265666C6F5D
:10042900772054656D703A00536F616B2054696D84
:10043900653A005265666C6F772054696D653A00BC
:1004490052616D7020746F20536F616B2020200002
:10045900536F616B20506861736520202020200054
:1004690052616D7020746F205265666C6F77200041
:100479005265666C6F772050686173652020200093
:10048900436F6F6C696E6720202020202020200098
:1004990050726F6365737320446F6E65202020006E
:1004A9002020202020202020202020202020202043
:1004B90000E58954F04401F589758CFD758A5AD295
:1004C900A9D28C22758CFD758A5AB29532C28E5387
:1004D900890F438920438780758DFD758BFDD28EE9
:1004E9007598522210990280FBF59922E4936006CF
:1004F9001204EDA380F62275C80075CDF575CC27D9
:1005090075CBF575CA27D2ADD2CA22C2CFB2910531
:100519005B055CD0D0D0E032C0F9A4B0999282F8E2
:1005290080908883C6A1868E900521E8C4540F93D4
:10053900F592E8540F93F59122900521E8C4540FE0
:1005490093F594E8540F93F59322900521E8C45448
:100559000F93F58FE8540F93F58E2275F06484F9A3
:10056900E5F075F00A84C454F045F0F822C0E0E5DE
:100579005FB400FDC0E07401141200CCD0E0C08368
:10058900C082C0E09003E91200BFD0E0D082D083DE
:10059900C0E07401141200CAD0E0C083C082C0E078
:1005A9009003F91200BFD0E0D082D0830206A6B42E
:1005B900011FC0E07401141200CCD0E0C083C082D6
:1005C900C0E09004091200BFD0E0D082D0830206B7
:1005D900A6B4021FC0E07401141200CCD0E0C0839D
:1005E900C082C0E09004491200BFD0E0D082D0831D
:1005F9000206A6B4031FC0E07401141200CCD0E0B7
:10060900C083C082C0E09004591200BFD0E0D082FC
:10061900D0830206A6B4041FC0E07401141200CCF2
:10062900D0E0C083C082C0E09004691200BFD0E06E
:10063900D082D0830206A6B4051FC0E0740114124B
:1006490000CCD0E0C083C082C0E09004791200BF22
:10065900D0E0D082D0830206A6B4061FC0E07401A0
:10066900141200CCD0E0C083C082C0E0900489128B
:1006790000BFD0E0D082D0830206A6B4071FC0E035
:100689007401141200CCD0E0C083C082C0E0900491
:10069900991200BFD0E0D082D0830206A6D0E02212
:1006A900E55DB4000A20F92D755B00055D8026B46F
:1006B9000109E55BB4321E055D801AB4020C20F90C
:1006C90004055D8010755D00800BB4030830F905E1
:1006D900D20B755D0022E55EB4000CE55CB4FA4509
:1006E900755C00055E803EB4010ED2E9E55CB4FAA2
:1006F90034755C00055E802DB4020ED2EAE55CB467
:10070900FA23755C00055E801CB40319D2EBE55C25
:10071900B4FA12755C00755E00E530B43B057530BE
:100729000080020530E55F8003755F00B4000710A3
:100739000C028057055FB4010C100D02804D100AA0
:10074900028048055FB4020A100E2C100202803B99
:10075900055FB4030A100E1F100502802E055FB451
:10076900040A100E121003028021055FB4050A1055
:100779000E051006028014055FB4060F10040280EE
:100789000A055FB40705100CA080002275817F124D
:1007990004BA12050012008A1204D6759A7F759B55
:1007A90022759CFF759DFF75E800759500D2AF75A0
:1007B9005D00755E00755B00755C00C0E074011436
:1007C9001200CCD0E0C083C082C0E09003D91200EF
:1007D900BFD0E0D082D083C20CC20DC20E1206A9CE
:0C07E9001206DF12072E1205760207E64A
:00000001FF
