:03000000020A1BD6
:0100030032CA
:03000B0002046983
:0100130032BA
:01001B0032B2
:0100230032AA
:03002B000204D6F6
:10002E00C0E0C0D0C000C001C002C035C034C03373
:10003E00C032E4F53AF53BF53CF53DF53E7A20E568
:10004E0035A2E779047832E633F608D9FA790578DD
:10005E003AE636D4F608D9F9DAE5D032D033D034D0
:10006E00D035D002D001D000D0D0D0E022C0E0C038
:10007E00D0C000C001C002C03EC03DC03CC03BC0AD
:10008E003A7A207905C3783EE613C0D030E70224D1
:10009E00D030E30224FDF618D0D0D9EC79047835AF
:1000AE00E613F618D9FADADBD200E53A7002C2008E
:1000BE00D03AD03BD03CD03DD03ED002D001D00083
:1000CE00D0D0D0E022C0E0C0D0E5322536F532E502
:1000DE00333537F533E5343538F534E5353539F51F
:1000EE00359200D0D0D0E022C0E0C0D0C3E532952A
:1000FE0036F532E5339537F533E5349538F534E595
:10010E00359539F5359200D0D0D0E022C0E0C0D080
:10011E00C3E5329536E5339537E5349538E53595B3
:10012E00399200D0D0D0E022C0E0C0D0C3E53695E1
:10013E0032E5379533E5389534E53995359200D06B
:10014E00D0D0E022C0E0C0D0C200C3E536953270F8
:10015E0014E5379533700EE53895347008E539950A
:10016E00357002D200D0D0D0E0221201522000030E
:10017E000201362212015220000302011A22C0E0AF
:10018E00C0F0C0D0C000C001C002C003C004C00592
:10019E00E5328536F0A4F8A9F0E5338536F0A429CA
:1001AE00F9E435F0FAE5328537F0A429F9E5F03AAD
:1001BE00FAE433FBE5348536F0A42AFAE5F03BFB8E
:1001CE00E5338537F0A42AFAE5F03BFBE5328538B6
:1001DE00F0A42AFAE5F03BFBE5358536F0A42BFBBF
:1001EE00ACF07D00E5348537F0A42BFBE5F03CFC4C
:1001FE00E43DFDE5338538F0A42BFBE5F03CFCE453
:10020E003DFDE5328539F0A42BFBE5F03CFCE43DE9
:10021E00FDEC4DFCE5358537F0A445F04CFCE5349E
:10022E008538F0A445F04CFCE5338539F0A445F053
:10023E004CFCE5358538F0A445F04CFCE5348539A9
:10024E00F0A445F04CFCE5358539F0A445F04CFCA6
:10025E008B358A3489338832D200BC0002C200D07A
:10026E0005D004D003D002D001D000D0D0D0F0D031
:10027E00E022C0E0C0D0C000C001C002C003C00474
:10028E00E5364537453845397005D2000202EBC2D6
:10029E00007C20E4F8F9FAFBC3E53233F532E5339E
:1002AE0033F533E53433F534E53533F535E833F8E6
:1002BE00E933F9EA33FAEB33FBC3E89536E99537C0
:1002CE00EA9538EB95394013E89536F8E99537F904
:1002DE00EA9538FAEB9539FB433201DCBBD004D0FA
:1002EE0003D002D001D000D0D0D0E02285323685A6
:1002FE00333785343885353922E532C536F532E562
:10030E0033C537F533E534C538F534E535C539F53C
:02031E00352286
:10032000696E697469616C206D65737361676500DE
:1003300057656C636F6D65202020202020202000F1
:1003400050726573732050423020202020202000FE
:1003500053656C656374204D6F64653A20202020DE
:100360000053657420536F616B2054656D702020BD
:10037000200053657420536F616B2054696D6520B4
:10038000202000536574205265666C6F7720546599
:100390006D702000536574205265666C6F77205431
:1003A000696D65200053657420506172616D6574DC
:1003B0006572732000536F616B2054656D703A0055
:1003C0005265666C6F772054656D703A00536F61AB
:1003D0006B2054696D653A005265666C6F772054E6
:1003E000696D653A0052616D7020746F20536F61C2
:1003F0006B20202000536F616B2050686173652073
:10040000202020200052616D7020746F205265669C
:100410006C6F7720005265666C6F7720506861734F
:100420006520202000436F6F6C696E6720202020BC
:10043000202020200050726F6365737320446F6E1C
:100440006520202000202020202020202020202087
:10045000202020202000E58954F04401F589758C86
:10046000FD758A5AD2A9D28C22758CFD758A5AB232
:100470009532C28E53890F438920438780758DFD45
:10048000758BFDD28E7598522210990280FBF599DA
:1004900022E4936006120489A380F62274AA12044F
:1004A000897455120489E535120489E534120489EA
:1004B000E533120489E532120489740A1204892290
:1004C00075C80075CDF575CC2775CBF575CA27C2F3
:1004D000CFD2ADD2CA22C0E0C0D0C2CF056405657C
:1004E000D20230150B054BE54BB41904D216C215D8
:1004F00030170B054CE54CB41904D218C21730194B
:100500000B054DE54DB41904D21AC219301B0B0569
:100510004EE54EB41904D21CC21B30130B054FE537
:0D0520004FB41904D214C213D0D0D0E03271
:10052D00C00078BE00000000D8FAD00022C000C084
:10053D0001793278DFD8FED9FADAF6D001D000226F
:10054D00D29112052DC29112052D22A2E79281A200
:10055D00E69283A2E59285A2E4928712054DA2E36D
:10056D009281A2E29283A2E19285A2E09287120586
:10057D004D22D297020558C297020558C291C0026A
:10058D007A2812053AD00274331205847433120599
:10059D008474321205847428120584740C12058437
:1005AD007401120584C0027A0212053AD00222E4C7
:1005BD0093600612057FA380F62244404480020515
:1005CD0084C0E0E8C4540F443012057FE8540F4452
:1005DD003012057FD0E022C0F9A4B0999282F88044
:1005ED00908883C6A1868E9005E4E8C4540F93F5D8
:1005FD0092E8540F93F591229005E4E8C4540F93BB
:10060D00F594E8540F93F593229005E4E8C4540F44
:10061D0093F58FE8540F93F58E2275F06484F9E508
:10062D00F075F00A84C454F045F0F822C0E0300CA7
:10063D000AC20CE568B40106D0E022D0E022B40075
:10064D003BC0E07401141205C9D0E0C083C082C064
:10065D00E09003301205BCD0E0D082D083C0E074AE
:10066D0001141205C7D0E0C083C082C0E0900340E2
:10067D001205BCD0E0D082D083020777B4011FC031
:10068D00E07401141205C9D0E0C083C082C0E090AF
:10069D0003A51205BCD0E0D082D083020777B40247
:1006AD001FC0E07401141205C9D0E0C083C082C020
:1006BD00E09003E51205BCD0E0D082D0830207772D
:1006CD00B4031FC0E07401141205C9D0E0C083C08B
:1006DD0082C0E09003F51205BCD0E0D082D0830239
:1006ED000777B4041FC0E07401141205C9D0E0C02F
:1006FD0083C082C0E09004051205BCD0E0D082D04A
:10070D0083020777B4051FC0E07401141205C9D028
:10071D00E0C083C082C0E09004151205BCD0E0D0CB
:10072D0082D083020777B4061FC0E074011412054E
:10073D00C9D0E0C083C082C0E09004251205BCD0B2
:10074D00E0D082D083020777B4071FC0E074011494
:10075D001205C9D0E0C083C082C0E09004351205F7
:10076D00BCD0E0D082D083020777D0E022E566B41A
:10077D00000A20F92D75640005668026B40109E58F
:10078D0064B4321E0566801AB4020C20F9040566A5
:10079D008010756600800BB4030830F905D20D7515
:1007AD00660022E567B4000CE565B4FA477565008F
:1007BD0005678040B4010ED2E9E565B4FA3675657A
:1007CD00000567802FB4020ED2EAE565B4FA2575EF
:1007DD0065000567801EB4031BD2EBE565B4FA1402
:1007ED00756500756700E530B43B05753000800414
:1007FD000530B2E8221002028071C2008560328598
:10080D0061338562348563357536DB75370575382B
:10081D000075390012015220001D75360175370023
:10082D007538007539001200D385326085336185C6
:10083D003462853563801875320075330075340068
:10084D007535008532608533618534628535638504
:10085D005C36855D37855E38855F3912011A20005B
:10086D0006C293C2EC8004D293D2EC22C203C2041E
:10087D00C0E0C0D0C000C001C002783F793212087C
:10088D00FF784379361208FF12011A200002D203B5
:10089D00783F79321208FF784779361208FF120136
:1008AD001A200002D204D002D001D000D0D0D0E066
:1008BD0022C0E0C0D0C000C001C002785079321211
:1008CD0008FF785479361208FF12011A200002D25F
:1008DD0006785079321208FF785879361208FF12CF
:1008ED00011A200002D207D002D001D000D0D0D002
:1008FD00E0227A04E6F70809DAFA22C0E0C0D0C097
:10090D0000C001C002200E3D300F3A7850793212EE
:10091D0008FF75363C7537007538007539001201C2
:10092D001A200021C20F783F79321208FF75363236
:10093D0075370075380075390012011A300006D26E
:10094D000ED209C293D002D001D000D0D0D0E02277
:10095D00E5688005756800D20CB40015209005126D
:10096D000E2F8001220568756900120D0DD20CE560
:10097D0068B40116120B45120B91209008120E2F20
:10098D00120AC98001220568D20CB4021530120575
:10099D00C2120209F5300309C2030568D20C753085
:1009AD000022B40312301205C2120209F5300606F8
:1009BD00C2060568D20C22B40415301205C212020B
:1009CD0009F5300409C2040568D20C75300022B453
:1009DD00050280030209F9301205C2120209F53031
:1009ED000705C2070209F5220568D20CB4060A30C4
:1009FD000506C2050568D20C22B407112010092086
:100A0D00900B120E2F020961C21002096122C2AFB2
:100A1D007581C078FA79FFD9FED8FA759AAA759BB7
:100A2D00FE759C01759D0075E800759500D2AF753A
:100A3D0066007567007568007569007564007565F9
:100A4D0000753000753100756000756100756200CC
:100A5D00756300755F00755E00755D02755CEEC2B5
:100A6D000EC209C210C211C212C201C20BC203C210
:100A7D0006C204C207C205C20CD20CD20F12045614
:100A8D001204C0120589120CBA120D0D1204721245
:100A9D00077A120E33120879120E84853050755173
:100AAD00007552007553001208BE1209081207B0E6
:100ABD0012095D120639120802020A9C786B120B9C
:100ACD00088F437544007545007546007874120B08
:100ADD00088F47754800754900754A00786F120BED
:100AED001C8F548E557556007557007878120B1C57
:100AFD008F588E59755A00755B00227F00E6600E87
:100B0D00C39430FDEF75F00AA42DFF0880EF22E6A7
:100B1D00943075F00AA4FD08E694302DFD08E69496
:100B2D003075F00AA4FC08E694302CED75F03CA469
:100B3D002CFFE5F03400FE2243805530800A3082D0
:100B4D001230841A30862222120E04756901756ADC
:100B5D00008021120E04756902756A008016120E4E
:100B6D0004756903756A00800B120E0475690475AE
:100B7D006A008000120D0D3080FD3082FD3084FD45
:100B8D003086FD22E5696050120BE6504BEFB40E36
:100B9D000A120CEA120D0D756A0022EFB40C012237
:100BAD00EFC3940A5031EF2430FD120E18E56A2878
:100BBD00F8EDF6056AE569B401028005B4030B8012
:100BCD0000E56AB4030D156A8009E56AB4040415DD
:100BDD006A8000120D0D222222C292C294C296C2C8
:100BED00A0A2A282A482A682B05002C322120E0439
:100BFD00A2A282A482A682B05002C322D292D29423
:100C0D00D296D2A0C29230A23D30A43E30A63F3043
:100C1D00B040D292C29430A23D30A43E30A63F30B7
:100C2D00B040D294C29630A23D30A43E30A63F30A3
:100C3D00B040D296C2A030A23D30A43E30A63F3087
:100C4D00B040D2A0C3227F01803C7F0280387F0359
:100C5D0080347F0A80307F04802C7F0580287F06BA
:100C6D0080247F0B80207F07801C7F0880187F09E0
:100C7D0080147F0D80107F0E800C7F0080087F0C0C
:100C8D0080047F0F8000A2A282A482A682B050F6BB
:100C9D00D3D292D294D296D2A02220130E30140425
:100CAD00C214D322754F00D213C322C322786B1204
:100CBD000CCF7874120CCF786F120CDB7878120C85
:100CCD00DB227630087630087630087600227630D2
:100CDD0008763008763008763008760022E569B45B
:100CED000106786B120CCF22B40206786F120CDB62
:100CFD0022B403067874120CCF227878120CDB2202
:100D0D00120E0AC0E07401141205C9D0E0E569B4F1
:100D1D000013C083C082C0E09003501205BCD0E028
:100D2D00D082D08322B40114C083C082C0E090036E
:100D3D00611205BCD0E0D082D0838042B40214C0D1
:100D4D0083C082C0E09003721205BCD0E0D082D087
:100D5D00838042B40314C083C082C0E09003831229
:100D6D0005BCD0E0D082D0838014C083C082C0E0A7
:100D7D009003941205BCD0E0D082D0838017C0E0E0
:100D8D007401141205C7D0E0120E18120DFA744337
:100D9D0012057F802CC0E07401141205C7D0E0123B
:100DAD000E18E612057F08E612057F08743A120543
:100DBD007FE612057F08E612057F747312057F80AA
:100DCD0000E569B40202800DB404028008E56A24CE
:100DDD00C012058422E56AB4020104C394024005E1
:100DED00E56A048002E56A24C012058422E66006E5
:100DFD0012057F0880F722120CA750FB22740112F6
:100E0D000584120E04740F12058422E569B40103E2
:100E1D00786B22B40203786F22B4030378742278BE
:100E2D0078223090FD22120CA7504B75A18075A130
:100E3D000085A23285A3337534007535007536886B
:100E4D0075371375380075390012018C7536FF75BD
:100E5D00370F75380075390012028075360A7537EF
:100E6D000075380075390012028085323F85334098
:100E7D0085344185354222755C00755D00755E00D7
:100E8D00755F00E568B402028016B4030520030FF8
:100E9D00801BB404028009B40505200402800E22D3
:100EAD00755CDC755D05755E00755F0022755C2CEB
:0A0EBD00755D01755E00755F00228F
:00000001FF
