:03000000020A43AE
:0100030032CA
:03000B00020414D8
:0100130032BA
:01001B0032B2
:0100230032AA
:03002B0002047F4D
:10002E00C0E0C0D0C000C001C002C03DC03CC03B5B
:10003E00C03AE4F542F543F544F545F5467A20E538
:10004E003DA2E77904783AE633F608D9FA790578CD
:10005E0042E636D4F608D9F9DAE5D03AD03BD03CB0
:10006E00D03DD002D001D000D0D0D0E022C0E0C030
:10007E00D0C000C001C002C046C045C044C043C08D
:10008E00427A207905C37846E613C0D030E70224C1
:10009E00D030E30224FDF618D0D0D9EC7904783DA7
:1000AE00E613F618D9FADADBD200E5427002C20086
:1000BE00D042D043D044D045D046D002D001D0005B
:1000CE00D0D0D0E022C0E0C0D0E53A253EF53AE5EA
:1000DE003B353FF53BE53C3540F53CE53D3541F5DF
:1000EE003D9200D0D0D0E022C0E0C0D0C3E53A951A
:1000FE003EF53AE53B953FF53BE53C9540F53CE555
:10010E003D9541F53D9200D0D0D0E022C0E0C0D068
:10011E00C3E53A953EE53B953FE53C9540E53D957B
:10012E00419200D0D0D0E022C0E0C0D0C3E53E95D1
:10013E003AE53F953BE540953CE541953D9200D033
:10014E00D0D0E022C0E0C0D0C200C3E53E953A70E8
:10015E0014E53F953B700EE540953C7008E54195E2
:10016E003D7002D200D0D0D0E02212015220000306
:10017E000201362212015220000302011A22C0E0AF
:10018E00C0F0C0D0C000C001C002C003C004C00592
:10019E00E53A853EF0A4F8A9F0E53B853EF0A429AA
:1001AE00F9E435F0FAE53A853FF0A429F9E5F03A9D
:1001BE00FAE433FBE53C853EF0A42AFAE5F03BFB7E
:1001CE00E53B853FF0A42AFAE5F03BFBE53A854096
:1001DE00F0A42AFAE5F03BFBE53D853EF0A42BFBAF
:1001EE00ACF07D00E53C853FF0A42BFBE5F03CFC3C
:1001FE00E43DFDE53B8540F0A42BFBE5F03CFCE443
:10020E003DFDE53A8541F0A42BFBE5F03CFCE43DD9
:10021E00FDEC4DFCE53D853FF0A445F04CFCE53C86
:10022E008540F0A445F04CFCE53B8541F0A445F03B
:10023E004CFCE53D8540F0A445F04CFCE53C854189
:10024E00F0A445F04CFCE53D8541F0A445F04CFC96
:10025E008B3D8A3C893B883AD200BC0002C200D05A
:10026E0005D004D003D002D001D000D0D0D0F0D031
:10027E00E022C0E0C0D0C000C001C002C003C00474
:10028E00E53E453F454045417005D2000202EBC2B6
:10029E00007C20E4F8F9FAFBC3E53A33F53AE53B86
:1002AE0033F53BE53C33F53CE53D33F53DE833F8BE
:1002BE00E933F9EA33FAEB33FBC3E8953EE9953FB0
:1002CE00EA9540EB95414013E8953EF8E9953FF9E4
:1002DE00EA9540FAEB9541FB433A01DCBBD004D0E2
:1002EE0003D002D001D000D0D0D0E022853A3E8596
:1002FE003B3F853C40853D4122E53AC53EF53AE51A
:10030E003BC53FF53BE53CC540F53CE53DC541F5FC
:02031E003D227E
:10032000696E697469616C206D65737361676500DE
:1003300057656C636F6D65202020202020202000F1
:1003400050726573732050423020202020202000FE
:1003500053657420506172616D657465727320001D
:10036000536F616B2054656D703A005265666C6F17
:10037000772054656D703A00536F616B2054696D3E
:10038000653A005265666C6F772054696D653A0076
:1003900052616D7020746F20536F616B20202000BC
:1003A000536F616B2050686173652020202020000E
:1003B00052616D7020746F205265666C6F772000FB
:1003C0005265666C6F77205068617365202020004D
:1003D000436F6F6C696E6720202020202020200052
:1003E00050726F6365737320446F6E652020200028
:1003F00020202020202020202020202020202020FD
:1004000000E58954F04401F589758CFD758A5AD24E
:10041000A9D28C22758CFD758A5AB29532C28E5340
:10042000890F438920438780758DFD758BFDD28EA2
:100430007598522210990280FBF59922E493600688
:10044000120434A380F62274AA12043474551204E0
:1004500034E53D120434E53C120434E53B12043427
:10046000E53A120434740A1204342275C80075CDBA
:10047000F575CC2775CBF575CA27D2ADD2CA22C087
:10048000E0C0D0C2CF055B055CD202D203D0D0D091
:02049000E03258
:10049200C00078BE00000000D8FAD00022C000C020
:1004A20001793278DFD8FED9FADAF6D001D000220B
:1004B200D2B3120492C2B312049222A2E792A3A26E
:1004C200E692A5A2E592A7A2E492B11204B2A2E337
:1004D20092A3A2E292A5A2E192A7A2E092B1120493
:1004E200B222D2B70204BDC2B70204BDC2B3C00277
:1004F2007A2812049FD00274331204E9743312046E
:10050200E974321204E974281204E9740C1204E941
:1005120074011204E9C0027A0212049FD00222E49A
:100522009360061204E4A380F6224440448002044D
:10053200E9C0E0E8C4540F44301204E4E8540F4424
:10054200301204E4D0E022C0F9A4B0999282F8807B
:10055200908883C6A1868E900549E8C4540F93F50E
:1005620092E8540F93F59122900549E8C4540F93F1
:10057200F594E8540F93F59322900549E8C4540F7B
:1005820093F58FE8540F93F58E2275F06484F9E5A4
:10059200F075F00A84C454F045F0F822C0E0100E61
:1005A200030206D4E55FB4003BC0E07401141205F7
:1005B2002ED0E0C083C082C0E0900330120521D06B
:1005C200E0D082D083C0E074011412052CD0E0C0C8
:1005D20083C082C0E0900340120521D0E0D082D0D7
:1005E200830206D4B4011FC0E074011412052ED098
:1005F200E0C083C082C0E0900350120521D0E0D059
:1006020082D0830206D4B4021FC0E0740114120522
:100612002ED0E0C083C082C0E0900390120521D0AA
:10062200E0D082D0830206D4B4031FC0E074011468
:1006320012052ED0E0C083C082C0E09003A0120554
:1006420021D0E0D082D0830206D4B4041FC0E0746B
:10065200011412052ED0E0C083C082C0E09003B026
:10066200120521D0E0D082D0830206D4B4051FC087
:10067200E074011412052ED0E0C083C082C0E09065
:1006820003C0120521D0E0D082D0830206D4B40682
:100692001FC0E074011412052ED0E0C083C082C0D6
:1006A200E09003D0120521D0E0D082D0830206D49C
:1006B200B4071FC0E074011412052ED0E0C083C03D
:1006C20082C0E09003E0120521D0E0D082D0830204
:1006D20006D4D0E022300C2B1001028026C0E07438
:1006E2000E1412052CD0E0C000A830120533D00041
:1006F200C0E0740B1412052CD0E0C000A831120522
:1007020033D00022E55DB4000A20F92D755B0005A7
:100712005D8026B40109E55BB4321E055D801AB422
:10072200020C20F904055D8010755D00800BB40396
:100732000830F905D211755D0022E55EB4000CE5C2
:100742005CB4FA4C755C00055E8045B4010ED2E9DA
:10075200E55CB4FA3B755C00055E8034B4020ED2EF
:10076200EAE55CB4FA2A755C00055E8023B40320D6
:10077200D2EBE55CB4FA19755C00755E00D201E556
:100782003004B43C0775300005318002F530B2E820
:1007920022C0E0C0D0E55FB402111010030207B816
:1007A200753000753100D20C0207B8B40602C20CD3
:1007B200300C0312073CD0D0D0E02210020280712C
:1007C200C20085573A85583B85593C855A3D753E4E
:1007D200DB753F0575400075410012015220001D76
:1007E200753E01753F007540007541001200D385CA
:1007F2003A57853B58853C59853D5A8018753A00D1
:10080200753B00753C00753D00853A57853B588520
:100812003C59853D5A85533E85543F855540855602
:100822004112011A200006C293C2EC8004D293D274
:10083200EC2275F0017F0112084F2275F0057F024C
:1008420012084F2275F00A7F0312084F22C0E0C03F
:10085200D0E563C39F40046002800D8F6385F06220
:10086200756100756001D28CD0D0D0E022100301F6
:1008720022E560B40008C28CC29575630022B401FF
:10088200120561E561B46430756100756002C28C65
:10089200C295220561E561B4641E756100E562607E
:1008A2000C1562E5626006756001D28C22756000EB
:1008B200C28CC2957563002222C0E0C0D0C000C0C5
:1008C20001C0027847793A120965784B793E1209DC
:1008D2006512011A200002D2047847793A1209659A
:1008E200784F793E12096512011A200002D205D012
:1008F20002D001D000D0D0D0E022C0E0C0D0E55F6D
:10090200B4032C100F028013E5312533F537E5309F
:100912002532F536C3943CF5360537E537C39531B4
:10092200403C7007E536C395307033D207802FE51F
:100932005FB4052A100F028013E5312535F539E53C
:10094200302534F538C3943CF5380539E539C3957B
:1009520031400B7007E538C395304002D208D0D041
:10096200D0E0227A04E6F70809DAFA22C0E0C0D021
:10097200C000C001C00220122F30132CE5317007D5
:10098200E530C3943C4021C2137847793A12096595
:10099200753E32753F0075400075410012011A30F4
:1009A2000006D212D20AC293D002D001D000D0D017
:1009B200D0E022E55F8009755F00C214D20ED20F2B
:1009C200B4000B1014028078055FD20ED20FB4016E
:1009D20012101502806A100D028065055FD20ED2D8
:1009E2000FD210B4020E1016381004028052055FA6
:1009F200D20ED20FB4030E10162710070280410543
:100A02005FD20ED20FB4040E1016161005028030FB
:100A1200055FD20ED20FB405101016051008028021
:100A22001F055FD20ED20FD210B406141006028038
:100A32000F055FD20ED20FB407063014030209B9B4
:100A42002275817F759A7F759B22759CFF759DFF2C
:100A520075E800759500D2AF755D00755E00755F33
:100A620000755B00755C00753000753100753200F1
:100A720075330075340075350075360075370075AD
:100A82003800753900755700755800755900755A48
:100A9200007556007555007554027553EEC295C225
:100AA20012C20AC214C215C216C201C20DC204C2C7
:100AB20007C205C208C206C20EC20FC210C20CD2C1
:100AC2001312040112046B1204EE12041D12070623
:100AD2001209B512059E1207BD1207931206D7120C
:050AE20008FC020ACF30
:00000001FF
