:030000000209965C
:0100030032CA
:03000B00020414D8
:0100130032BA
:01001B0032B2
:0100230032AA
:03002B0002047F4D
:10002E00C0E0C0D0C000C001C002C035C034C03373
:10003E00C032E4F53AF53BF53CF53DF53E7A20E568
:10004E0035A2E779047832E633F608D9FA790578DD
:10005E003AE636D4F608D9F9DAE5D032D033D034D0
:10006E00D035D002D001D000D0D0D0E022C0E0C038
:10007E00D0C000C001C002C03EC03DC03CC03BC0AD
:10008E003A7A207905C3783EE613C0D030E70224D1
:10009E00D030E30224FDF618D0D0D9EC79047835AF
:1000AE00E613F618D9FADADBD200E53A7002C2008E
:1000BE00D03AD03BD03CD03DD03ED002D001D00083
:1000CE00D0D0D0E022C0E0C0D0E5322536F532E502
:1000DE00333537F533E5343538F534E5353539F51F
:1000EE00359200D0D0D0E022C0E0C0D0C3E532952A
:1000FE0036F532E5339537F533E5349538F534E595
:10010E00359539F5359200D0D0D0E022C0E0C0D080
:10011E00C3E5329536E5339537E5349538E53595B3
:10012E00399200D0D0D0E022C0E0C0D0C3E53695E1
:10013E0032E5379533E5389534E53995359200D06B
:10014E00D0D0E022C0E0C0D0C200C3E536953270F8
:10015E0014E5379533700EE53895347008E539950A
:10016E00357002D200D0D0D0E0221201522000030E
:10017E000201362212015220000302011A22C0E0AF
:10018E00C0F0C0D0C000C001C002C003C004C00592
:10019E00E5328536F0A4F8A9F0E5338536F0A429CA
:1001AE00F9E435F0FAE5328537F0A429F9E5F03AAD
:1001BE00FAE433FBE5348536F0A42AFAE5F03BFB8E
:1001CE00E5338537F0A42AFAE5F03BFBE5328538B6
:1001DE00F0A42AFAE5F03BFBE5358536F0A42BFBBF
:1001EE00ACF07D00E5348537F0A42BFBE5F03CFC4C
:1001FE00E43DFDE5338538F0A42BFBE5F03CFCE453
:10020E003DFDE5328539F0A42BFBE5F03CFCE43DE9
:10021E00FDEC4DFCE5358537F0A445F04CFCE5349E
:10022E008538F0A445F04CFCE5338539F0A445F053
:10023E004CFCE5358538F0A445F04CFCE5348539A9
:10024E00F0A445F04CFCE5358539F0A445F04CFCA6
:10025E008B358A3489338832D200BC0002C200D07A
:10026E0005D004D003D002D001D000D0D0D0F0D031
:10027E00E022C0E0C0D0C000C001C002C003C00474
:10028E00E5364537453845397005D2000202EBC2D6
:10029E00007C20E4F8F9FAFBC3E53233F532E5339E
:1002AE0033F533E53433F534E53533F535E833F8E6
:1002BE00E933F9EA33FAEB33FBC3E89536E99537C0
:1002CE00EA9538EB95394013E89536F8E99537F904
:1002DE00EA9538FAEB9539FB433201DCBBD004D0FA
:1002EE0003D002D001D000D0D0D0E02285323685A6
:1002FE00333785343885353922E532C536F532E562
:10030E0033C537F533E534C538F534E535C539F53C
:02031E00352286
:10032000696E697469616C206D65737361676500DE
:1003300057656C636F6D65202020202020202000F1
:1003400050726573732050423020202020202000FE
:1003500053657420506172616D657465727320001D
:10036000536F616B2054656D703A005265666C6F17
:10037000772054656D703A00536F616B2054696D3E
:10038000653A005265666C6F772054696D653A0076
:1003900052616D7020746F20536F616B20202000BC
:1003A000536F616B2050686173652020202020000E
:1003B00052616D7020746F205265666C6F772000FB
:1003C0005265666C6F77205068617365202020004D
:1003D000436F6F6C696E6720202020202020200052
:1003E00050726F6365737320446F6E652020200028
:1003F00020202020202020202020202020202020FD
:1004000000E58954F04401F589758CFD758A5AD24E
:10041000A9D28C22758CFD758A5AB29532C28E5340
:10042000890F438920438780758DFD758BFDD28EA2
:100430007598522210990280FBF59922E493600688
:10044000120434A380F62274AA12043474551204E0
:1004500034E535120434E534120434E5331204343F
:10046000E532120434740A1204342275C80075CDC2
:10047000F575CC2775CBF575CA27D2ADD2CA22C087
:10048000E0C0D0C2CF055F0560D202D0D0D0E0324C
:10049000C00078BE00000000D8FAD00022C000C022
:1004A00001793278DFD8FED9FADAF6D001D000220D
:1004B000D2B3120490C2B312049022A2E792A3A274
:1004C000E692A5A2E592A7A2E492B11204B0A2E33B
:1004D00092A3A2E292A5A2E192A7A2E092B1120495
:1004E000B022D2B70204BBC2B70204BBC2B3C0027F
:1004F0007A2812049DD00274331204E77433120474
:10050000E774321204E774281204E7740C1204E74B
:1005100074011204E7C0027A0212049DD00222E4A0
:100520009360061204E2A380F62244404480020451
:10053000E7C0E0E8C4540F44301204E2E8540F442A
:10054000301204E2D0E022C0F9A4B0999282F8807F
:10055000908883C6A1868E900547E8C4540F93F512
:1005600092E8540F93F59122900547E8C4540F93F5
:10057000F594E8540F93F59322900547E8C4540F7F
:1005800093F58FE8540F93F58E2275F06484F9E5A6
:10059000F075F00A84C454F045F0F822C0E0100D64
:1005A000030206D2E563B4003BC0E07401141205F7
:1005B0002CD0E0C083C082C0E090033012051FD071
:1005C000E0D082D083C0E074011412052AD0E0C0CC
:1005D00083C082C0E090034012051FD0E0D082D0DB
:1005E000830206D2B4011FC0E074011412052CD09E
:1005F000E0C083C082C0E090035012051FD0E0D05D
:1006000082D0830206D2B4021FC0E0740114120526
:100610002CD0E0C083C082C0E090039012051FD0B0
:10062000E0D082D0830206D2B4031FC0E07401146C
:1006300012052CD0E0C083C082C0E09003A0120558
:100640001FD0E0D082D0830206D2B4041FC0E07471
:10065000011412052CD0E0C083C082C0E09003B02A
:1006600012051FD0E0D082D0830206D2B4051FC08D
:10067000E074011412052CD0E0C083C082C0E09069
:1006800003C012051FD0E0D082D0830206D2B40688
:100690001FC0E074011412052CD0E0C083C082C0DA
:1006A000E09003D012051FD0E0D082D0830206D2A2
:1006B000B4071FC0E074011412052CD0E0C083C041
:1006C00082C0E09003E012051FD0E0D082D0830208
:1006D00006D2D0E022E561B4000A20F92D755F0052
:1006E00005618026B40109E55FB4321E0561801AF8
:1006F000B4020C20F90405618010756100800BB410
:10070000030830F905D20E75610022E562B4000CD1
:10071000E560B4FA4775600005628040B4010ED20E
:10072000E9E560B4FA367560000562802FB4020E08
:10073000D2EAE560B4FA257560000562801EB40354
:100740001BD2EBE560B4FA14756000756200E53009
:10075000B43B0575300080040530B2E82210020277
:100760008071C200855B32855C33855D34855E3582
:100770007536DB7537057538007539001201522062
:10078000001D753601753700753800753900120087
:10079000D385325B85335C85345D85355E80187525
:1007A000320075330075340075350085325B853352
:1007B0005C85345D85355E85573685583785593873
:1007C000855A3912011A200006C293C2EC8004D265
:1007D00093D2EC22E563B40004C214802CB401046B
:1007E000D2148025B40204C214801EB40304C214BF
:1007F0008017B40404C2148010B40504C214800924
:10080000B40604C2148002D214100301221208118B
:1008100022C0E0C0D0E56404B414027400F5642082
:100820001409E564C39402400B800DE564C3940190
:1008300040028004D2948002C294D0D0D0E022C082
:10084000E0C0D0C000C001C002783F79321208C1B8
:10085000784379361208C112011A200002D20478B6
:100860003F79321208C1784779361208C112011A4D
:10087000200002D205D002D001D000D0D0D0E0229A
:10088000C0E0C0D0C000C001C002784B793212086D
:10089000C1784F79361208C112011A200002D2071E
:1008A000784B79321208C1785379361208C1120197
:1008B0001A200002D208D002D001D000D0D0D0E05F
:1008C000227A04E6F70809DAFA22C0E0C0D0C000B4
:1008D000C001C002200F3D30103A784B7932120827
:1008E000C175363C75370075380075390012011A2C
:1008F000200021C210783F79321208C17536327556
:10090000370075380075390012011A300006D20F11
:10091000D20AC293D002D001D000D0D0D0E022E5DC
:10092000638005756300D20DB40009101102806563
:100930000563D20DB4010E1012028059100C028012
:10094000540563D20DB4020C10133210040280451A
:100950000563D20DB4030C10132310070280360573
:1009600063D20DB4040C1013141005028027056324
:10097000D20DB4050C10130510080280180563D2BF
:100980000DB40611100602800C0563D20DB40705E4
:1009900010119080002275817F759A7F759B22755A
:1009A0009CFF759DFF75E800759500D2AF756100DD
:1009B000756200756300755F0075600075300075C5
:1009C0003100755B00755C00755D00755E00755AE1
:1009D000007559007558027557EEC20FC20AC21150
:1009E000C212C213C201C20CC204C207C205C208AD
:1009F000C206C20DD21012040112046B1204EC12D2
:100A0000041D1206D512070B12091F12059C1207AE
:070A10005D1207D4020A0287
:00000001FF
