:03000000020A4EA3
:0100030032CA
:03000B00020414D8
:0100130032BA
:01001B0032B2
:0100230032AA
:03002B0002047F4D
:10002E00C0E0C0D0C000C001C002C035C034C03373
:10003E00C032E4F53AF53BF53CF53DF53E7A20E568
:10004E0035A2E779047832E633F608D9FA790578DD
:10005E003AE636D4F608D9F9DAE5D032D033D034D0
:10006E00D035D002D001D000D0D0D0E022C0E0C038
:10007E00D0C000C001C002C03EC03DC03CC03BC0AD
:10008E003A7A207905C3783EE613C0D030E70224D1
:10009E00D030E30224FDF618D0D0D9EC79047835AF
:1000AE00E613F618D9FADADBD200E53A7002C2008E
:1000BE00D03AD03BD03CD03DD03ED002D001D00083
:1000CE00D0D0D0E022C0E0C0D0E5322536F532E502
:1000DE00333537F533E5343538F534E5353539F51F
:1000EE00359200D0D0D0E022C0E0C0D0C3E532952A
:1000FE0036F532E5339537F533E5349538F534E595
:10010E00359539F5359200D0D0D0E022C0E0C0D080
:10011E00C3E5329536E5339537E5349538E53595B3
:10012E00399200D0D0D0E022C0E0C0D0C3E53695E1
:10013E0032E5379533E5389534E53995359200D06B
:10014E00D0D0E022C0E0C0D0C200C3E536953270F8
:10015E0014E5379533700EE53895347008E539950A
:10016E00357002D200D0D0D0E0221201522000030E
:10017E000201362212015220000302011A22C0E0AF
:10018E00C0F0C0D0C000C001C002C003C004C00592
:10019E00E5328536F0A4F8A9F0E5338536F0A429CA
:1001AE00F9E435F0FAE5328537F0A429F9E5F03AAD
:1001BE00FAE433FBE5348536F0A42AFAE5F03BFB8E
:1001CE00E5338537F0A42AFAE5F03BFBE5328538B6
:1001DE00F0A42AFAE5F03BFBE5358536F0A42BFBBF
:1001EE00ACF07D00E5348537F0A42BFBE5F03CFC4C
:1001FE00E43DFDE5338538F0A42BFBE5F03CFCE453
:10020E003DFDE5328539F0A42BFBE5F03CFCE43DE9
:10021E00FDEC4DFCE5358537F0A445F04CFCE5349E
:10022E008538F0A445F04CFCE5338539F0A445F053
:10023E004CFCE5358538F0A445F04CFCE5348539A9
:10024E00F0A445F04CFCE5358539F0A445F04CFCA6
:10025E008B358A3489338832D200BC0002C200D07A
:10026E0005D004D003D002D001D000D0D0D0F0D031
:10027E00E022C0E0C0D0C000C001C002C003C00474
:10028E00E5364537453845397005D2000202EBC2D6
:10029E00007C20E4F8F9FAFBC3E53233F532E5339E
:1002AE0033F533E53433F534E53533F535E833F8E6
:1002BE00E933F9EA33FAEB33FBC3E89536E99537C0
:1002CE00EA9538EB95394013E89536F8E99537F904
:1002DE00EA9538FAEB9539FB433201DCBBD004D0FA
:1002EE0003D002D001D000D0D0D0E02285323685A6
:1002FE00333785343885353922E532C536F532E562
:10030E0033C537F533E534C538F534E535C539F53C
:02031E00352286
:10032000696E697469616C206D65737361676500DE
:1003300057656C636F6D65202020202020202000F1
:1003400050726573732050423020202020202000FE
:1003500053657420506172616D657465727320001D
:10036000536F616B2054656D703A005265666C6F17
:10037000772054656D703A00536F616B2054696D3E
:10038000653A005265666C6F772054696D653A0076
:1003900052616D7020746F20536F616B20202000BC
:1003A000536F616B2050686173652020202020000E
:1003B00052616D7020746F205265666C6F772000FB
:1003C0005265666C6F77205068617365202020004D
:1003D000436F6F6C696E6720202020202020200052
:1003E00050726F6365737320446F6E652020200028
:1003F00020202020202020202020202020202020FD
:1004000000E58954F04401F589758CFD758A5AD24E
:10041000A9D28C22758CFD758A5AB29532C28E5340
:10042000890F438920438780758DFD758BFDD28EA2
:1004300075985222309904C299F59922E493600686
:10044000120434A380F62274AA12043474551204E0
:1004500034E535120434E534120434E5331204343F
:10046000E532120434740A1204342275C80075CDC2
:10047000F575CC2775CBF575CA27D2ADD2CA22C087
:10048000E0C0D0C2CF055F0560D202D203D0D0D089
:02049000E03258
:10049200C00078BE00000000D8FAD00022C000C020
:1004A20001793278DFD8FED9FADAF6D001D000220B
:1004B200D2B3120492C2B312049222A2E792A3A26E
:1004C200E692A5A2E592A7A2E492B11204B2A2E337
:1004D20092A3A2E292A5A2E192A7A2E092B1120493
:1004E200B222D2B70204BDC2B70204BDC2B3C00277
:1004F2007A2812049FD00274331204E9743312046E
:10050200E974321204E974281204E9740C1204E941
:1005120074011204E9C0027A0212049FD00222E49A
:100522009360061204E4A380F6224440448002044D
:10053200E9C0E0E8C4540F44301204E4E8540F4424
:10054200301204E4D0E022C0F9A4B0999282F8807B
:10055200908883C6A1868E900549E8C4540F93F50E
:1005620092E8540F93F59122900549E8C4540F93F1
:10057200F594E8540F93F59322900549E8C4540F7B
:1005820093F58FE8540F93F58E2275F06484F9E5A4
:10059200F075F00A84C454F045F0F822C0E0200D52
:1005A200030206D9C20DE563B4003BC0E074011436
:1005B20012052ED0E0C083C082C0E0900330120545
:1005C20021D0E0D082D083C0E074011412052CD077
:1005D200E0C083C082C0E0900340120521D0E0D089
:1005E20082D0830206D6B4011FC0E0740114120542
:1005F2002ED0E0C083C082C0E0900390120521D0CB
:10060200E0D082D0830206D6B4021FC0E074011487
:1006120012052ED0E0C083C082C0E09003A0120574
:1006220021D0E0D082D0830206D6B4031FC0E0748A
:10063200011412052ED0E0C083C082C0E09003B046
:10064200120521D0E0D082D0830206D6B4041FC0A6
:10065200E074011412052ED0E0C083C082C0E09085
:1006620003C0120521D0E0D082D0830206D6B405A1
:100672001FC0E074011412052ED0E0C083C082C0F6
:10068200E09003D0120521D0E0D082D0830206D6BA
:10069200B4061FC0E074011412052ED0E0C083C05E
:1006A20082C0E09003D0120521D0E0D082D0830234
:1006B20006D6B4071FC0E074011412052ED0E0C0A4
:1006C20083C082C0E09003E0120521D0E0D082D046
:1006D200830206D6D0E0220206D6E561B4000A20E3
:1006E200F92D755F0005618026B40109E55FB4321A
:1006F2001E0561801AB4020C20F904056180107590
:100702006100800BB4030830F905D20E7561002236
:10071200E562B4000CE560B4FA57756000056280CA
:1007220050B4010ED2E9E560B4FA46756000056284
:10073200803FB4020ED2EAE560B4FA357560000576
:1007420062802EB4032BD2EBE560B4FA247560000C
:10075200756200E530B43B07753000053180040551
:1007620030B2E8E563B4020405668005B40402050C
:1007720066221002028071C200855B32855C33857D
:100782005D34855E357536DB75370575380075392C
:100792000012015220001D753601753700753800B0
:1007A2007539001200D385325B85335C85345D85F3
:1007B200355E80187532007533007534007535006A
:1007C20085325B85335C85345D85355E855736853C
:1007D2005837855938855A3912011A200006C293B2
:1007E200C2EC8004D293D2EC227557DB75580575A2
:1007F2005900755A002275572C75580175590075A4
:100802005A0022755700755800755900755A002212
:10081200E580F45455FFE564F45FFE8F64A290B363
:10082200500BE565700AD20F75650180037565008E
:10083200EE30E00B756301D20D7566001207EBEE28
:1008420030E20B756302D20D7566001207F8EE30C6
:10085200E40B756303D20D7566001207EBEE30E60A
:100862000B756304D20D7566001207F822C0E0C052
:10087200D0C000C001C002783F79321208F178433B
:1008820079361208F112011A200002D204783F7957
:10089200321208F1784779361208F112011A200053
:1008A20002D205D002D001D000D0D0D0E022C0E0E8
:1008B200C0D0C000C001C002784B79321208F17872
:1008C2004F79361208F112011A200002D207784B32
:1008D20079321208F1785379361208F112011A208E
:1008E2000002D208D002D001D000D0D0D0E0227ACB
:1008F20004E6F70809DAFA22C0E0C0D0C000C0015D
:10090200C00220103D30113A784B79321208F1754D
:10091200363C75370075380075390012011A20000F
:1009220021C211783F79321208F1753632753700DB
:1009320075380075390012011A300006D210D20A39
:10094200C293D002D001D000D0D0D0E022E5630221
:100952000961756300D20D756600120805E563B47E
:100962000015100F03020A4D02096D0563D20D75C1
:1009720066001207EBE563B40131100F1F783F796F
:10098200321208F1753696753700753800753900E0
:1009920012011A2000030209A1020A4D0209A1054F
:1009A20063D20D7566001207F8E563B4021F100FDB
:1009B2000DE566C3943C40030209C3020A4D0209D5
:1009C200C30563D20D7566001207EBE563B403310C
:1009D200100F1F783F79321208F17536DC75370037
:1009E20075380075390012011A2000030209F70256
:1009F2000A4D0209F70563D20D7566001207F8E584
:100A020063B4041F100F0DE566C3942D4003020A60
:100A120019020A4D020A190563D20D756600120801
:100A220005E563B40525100F1F783F79321208F1EE
:100A320075363D75370075380075390012011A2078
:100A42000003020A4D0209540209542275817F757E
:100A52009AAA759B2A759CFF759DFF75E80075958E
:100A620000D2AF7561007562007563007564007530
:100A72006500756600755F00756000753000753140
:100A820000755B00755C00755D00755E00755A004F
:100A92007559007558027557EEC210C20AC212C2C9
:100AA20013C214C201C20CC204C207C205C208C2E8
:100AB20006C20DC20FD21112040112046B1204EE0F
:100AC20012041D1206DC12071212081212094F122A
:080AD200059E120774020AC51B
:00000001FF
