:03000000020F905C
:0100030032CA
:03000B0002046983
:0100130032BA
:01001B0032B2
:0100230032AA
:03002B000204D4F8
:10002E00C0E0C0D0C000C001C002C03DC03CC03B5B
:10003E00C03AE4F542F543F544F545F5467A20E538
:10004E003DA2E77904783AE633F608D9FA790578CD
:10005E0042E636D4F608D9F9DAE5D03AD03BD03CB0
:10006E00D03DD002D001D000D0D0D0E022C0E0C030
:10007E00D0C000C001C002C046C045C044C043C08D
:10008E00427A207905C37846E613C0D030E70224C1
:10009E00D030E30224FDF618D0D0D9EC7904783DA7
:1000AE00E613F618D9FADADBD200E5427002C20086
:1000BE00D042D043D044D045D046D002D001D0005B
:1000CE00D0D0D0E022C0E0C0D0E53A253EF53AE5EA
:1000DE003B353FF53BE53C3540F53CE53D3541F5DF
:1000EE003D9200D0D0D0E022C0E0C0D0C3E53A951A
:1000FE003EF53AE53B953FF53BE53C9540F53CE555
:10010E003D9541F53D9200D0D0D0E022C0E0C0D068
:10011E00C3E53A953EE53B953FE53C9540E53D957B
:10012E00419200D0D0D0E022C0E0C0D0C3E53E95D1
:10013E003AE53F953BE540953CE541953D9200D033
:10014E00D0D0E022C0E0C0D0C200C3E53E953A70E8
:10015E0014E53F953B700EE540953C7008E54195E2
:10016E003D7002D200D0D0D0E02212015220000306
:10017E000201362212015220000302011A22C0E0AF
:10018E00C0F0C0D0C000C001C002C003C004C00592
:10019E00E53A853EF0A4F8A9F0E53B853EF0A429AA
:1001AE00F9E435F0FAE53A853FF0A429F9E5F03A9D
:1001BE00FAE433FBE53C853EF0A42AFAE5F03BFB7E
:1001CE00E53B853FF0A42AFAE5F03BFBE53A854096
:1001DE00F0A42AFAE5F03BFBE53D853EF0A42BFBAF
:1001EE00ACF07D00E53C853FF0A42BFBE5F03CFC3C
:1001FE00E43DFDE53B8540F0A42BFBE5F03CFCE443
:10020E003DFDE53A8541F0A42BFBE5F03CFCE43DD9
:10021E00FDEC4DFCE53D853FF0A445F04CFCE53C86
:10022E008540F0A445F04CFCE53B8541F0A445F03B
:10023E004CFCE53D8540F0A445F04CFCE53C854189
:10024E00F0A445F04CFCE53D8541F0A445F04CFC96
:10025E008B3D8A3C893B883AD200BC0002C200D05A
:10026E0005D004D003D002D001D000D0D0D0F0D031
:10027E00E022C0E0C0D0C000C001C002C003C00474
:10028E00E53E453F454045417005D2000202EBC2B6
:10029E00007C20E4F8F9FAFBC3E53A33F53AE53B86
:1002AE0033F53BE53C33F53CE53D33F53DE833F8BE
:1002BE00E933F9EA33FAEB33FBC3E8953EE9953FB0
:1002CE00EA9540EB95414013E8953EF8E9953FF9E4
:1002DE00EA9540FAEB9541FB433A01DCBBD004D0E2
:1002EE0003D002D001D000D0D0D0E022853A3E8596
:1002FE003B3F853C40853D4122E53AC53EF53AE51A
:10030E003BC53FF53BE53CC540F53CE53DC541F5FC
:02031E003D227E
:10032000696E697469616C206D65737361676500DE
:1003300057656C636F6D65202020202020202000F1
:1003400050726573732050423020202020202000FE
:1003500053656C656374204D6F64653A20202020DE
:100360000053657420536F616B2054656D702020BD
:10037000200053657420536F616B2054696D6520B4
:10038000202000536574205265666C6F7720546599
:100390006D702000536574205265666C6F77205431
:1003A000696D65200053657420506172616D6574DC
:1003B0006572732000536F616B2054656D703A0055
:1003C0005265666C6F772054656D703A00536F61AB
:1003D0006B2054696D653A005265666C6F772054E6
:1003E000696D653A0052616D7020746F20536F61C2
:1003F0006B20202000536F616B2050686173652073
:10040000202020200052616D7020746F205265669C
:100410006C6F7720005265666C6F7720506861734F
:100420006520202000436F6F6C696E6720202020BC
:10043000202020200050726F6365737320446F6E1C
:100440006520202000202020202020202020202087
:10045000202020202000E58954F04401F589758C86
:10046000FD758A5AD2A9D28C22758CFD758A5A32B2
:10047000C28E53890F438920438780758DFD758B0C
:10048000FDD28E7598522210990280FBF59922E4D4
:10049000936006120487A380F62274AA120487745C
:1004A00055120487E53D120487E53C120487E53BBD
:1004B000120487E53A120487740A1204872275C869
:1004C0000075CDF575CC2775CBF575CA27C2CFD28F
:1004D000ADD2CA22C0E0C0D0C2CF0567D202D203DB
:1004E0000569056B30190B0553E553B41904D21A8D
:1004F000C219301B0B0554E554B41904D21CC21B9D
:10050000301D0B0555E555B41904D21EC21D301F10
:100510000B0556E556B41904D220C21F30170B053F
:0F05200057E557B41904D218C217D0D0D0E03223
:10052F00C00078BE00000000D8FAD00022C000C082
:10053F0001793278DFD8FED9FADAF6D001D000226D
:10054F00D29112052FC29112052F22A2E79281A2FA
:10055F00E69283A2E59285A2E4928712054FA2E369
:10056F009281A2E29283A2E19285A2E09287120584
:10057F004F22D29702055AC29702055AC291C00262
:10058F007A2812053CD00274331205867433120593
:10059F008674321205867428120586740C1205862D
:1005AF007401120586C0027A0212053CD00222E4C1
:1005BF00936006120581A380F62244404480020511
:1005CF0086C0E0E8C4540F4430120581E8540F444C
:1005DF0030120581D0E022C0F9A4B0999282F88040
:1005EF00908883C6A1868E9005E6E8C4540F93F5D4
:1005FF0092E8540F93F591229005E6E8C4540F93B7
:10060F00F594E8540F93F593229005E6E8C4540F40
:10061F0093F58FE8540F93F58E2275F06484F9E506
:10062F00F075F00A84C454F045F0F822C0E0300FA2
:10063F0004C20F800302077B12091AE560B4003B66
:10064F00C0E07401141205CBD0E0C083C082C0E0BB
:10065F009003301205BED0E0D082D083C0E0740189
:10066F00141205C9D0E0C083C082C0E090034012CD
:10067F0005BED0E0D082D083020778B4011FC0E05E
:10068F007401141205CBD0E0C083C082C0E0900388
:10069F00A51205BED0E0D082D083020778B4021F26
:1006AF00C0E07401141205CBD0E0C083C082C0E05B
:1006BF009003E51205BED0E0D082D083020799B433
:1006CF00031FC0E07401141205CBD0E0C083C082B9
:1006DF00C0E09003F51205BED0E0D082D0830207B0
:1006EF0099B4041FC0E07401141205CBD0E0C0838D
:1006FF00C082C0E09004051205BED0E0D082D08346
:10070F00020799B4051FC0E07401141205CBD0E0A5
:10071F00C083C082C0E09004151205BED0E0D08225
:10072F00D083020799B4061FC0E07401141205CBE1
:10073F00D0E0C083C082C0E09004251205BED0E097
:10074F00D082D083020799B4071FC0E0740114123E
:10075F0005CBD0E0C083C082C0E09004351205BE47
:10076F00D0E0D082D0830207780207DB3001FAE5B0
:10077F0060B402028014B40302800FB40402800A32
:10078F00B405028005B406448000C0E07401141261
:10079F0005C9D0E085473A85483B85493C854A3DA8
:1007AF0012002EE543540F2430120581E542C45444
:1007BF000F2430120581E542540F24301205817445
:1007CF00431205817420120581120581D0E0223079
:1007DF000D2B1004028026C0E0740E141205C9D030
:1007EF00E0C000A8301205D0D000C0E0740B141286
:1007FF0005C9D0E0C000A8311205D0D00022E560B5
:10080F00B401028001223021FCC221C0E074011426
:10081F001205CBD0E0E561B40013C083C082C0E005
:10082F009003501205BED0E0D082D08322B40114C1
:10083F00C083C082C0E09003611205BED0E0D082B9
:10084F00D0838042B40214C083C082C0E090037290
:10085F001205BED0E0D082D0838046B40314C0838B
:10086F00C082C0E09003831205BED0E0D082D08357
:10087F008014C083C082C0E09003941205BED0E004
:10088F00D082D083801BC0E07401141205C9D0E060
:10089F0012092E120910C0E07443120581D0E080B6
:1008AF0034C0E07401141205C9D0E012092EE6120B
:1008BF00058108E612058108C0E0743A120581D05F
:1008CF00E0E612058108E6120581C0E07473120597
:1008DF0081D0E08000E561B40202800DB404028093
:1008EF0008E56224C012058622E562B4020104C342
:1008FF0094024005E562048002E56224C012058679
:10090F0022E660061205810880F72274011205861F
:10091F00C0027A0212053CD002740C12058622E541
:10092F0061B40103788022B40203788422B40303F4
:10093F00788922788D22E56AB4000A20902F756994
:10094F0000056A8028B40109E569B43220056A8080
:10095F001CB4020C209004056A8012756A00800D89
:10096F00B4030A309007D214B2ED756A0022E56C19
:10097F00B4000A20B72D756B00056C8026B40109F1
:10098F00E56BB4321E056C801AB4020C20B7040557
:10099F006C8010756C00800BB4030830B705D2164D
:1009AF00756C0022E568B4000CE567B4FA51756701
:1009BF00000568804AB4010ED2E9E567B4FA4075C4
:1009CF00670005688039B4020ED2EAE567B4FA2FE2
:1009DF0075670005688028B40325D2EBE567B4FA84
:1009EF001E756700756800D204D201B2E8300D0F92
:1009FF00E53004B43C0775300005318002F5302234
:100A0F00C0E0C0D0E560B4020F101102800F753046
:100A1F0000753100D20D8005B40602C20DD0D0D0C2
:100A2F00E022C0E0C0D0E560B4032E1010028015A4
:100A3F00E5312533F537E5302532F536C3943C40A3
:100A4F0004F5360537E531C39537403C7007E5307F
:100A5F00C395367033D208802FE560B4052A101085
:100A6F00028013E5312535F539E5302534F538C3E6
:100A7F00943CF5380539E531C39539400B7007E5DE
:100A8F0030C395384002D209D0D0D0E022C205C27F
:100A9F0006C207C0E0C0D0C000C001C002784779CD
:100AAF003A120AFE784B793E120AFE12011A200002
:100ABF0002D2057847793A120AFE784F793E120A28
:100ACF00FE12011A20001DD2067847793A120AFE4B
:100ADF00753E64753F0075400075410012011A3074
:100AEF000002D207D002D001D000D0D0D0E0227ABD
:100AFF0004E6F70809DAFA221002028071C20085B3
:100B0F005C3A855D3B855E3C855F3D753EDB753FA1
:100B1F000575400075410012015220001D753E0100
:100B2F00753F007540007541001200D3853A5C8512
:100B3F003B5D853C5E853D5F8018753A00753B00D7
:100B4F00753C00753D00853A5C853B5D853C5E8557
:100B5F003D5F85583E85593F855A40855B4112015F
:100B6F001A200006C293C2EC8004D293D2EC22C0AA
:100B7F00E0C0D0C000C001C00220122F30132CE5FE
:100B8F00317007E530C3943C4021C2137847793A5E
:100B9F00120AFE753E32753F007540007541001216
:100BAF00011A300006D212D20BC293D002D001D05C
:100BBF0000D0D0D0E022E5608008756000D20FD25F
:100BCF001022B40013301404C21480012275600186
:100BDF00756100D20FD21022B40112301404C21466
:100BEF00800122756002D20FD210D21122B4021DE1
:100BFF00301605C216020C69120A9C300506C20592
:100C0F00C208800122756003D20FD21022B40318DC
:100C1F00301605C216020C69300804C20880012282
:100C2F00756004D20FD21022B4041D301605C216FF
:100C3F00020C69120A9C300606C206C20980012204
:100C4F00756005D20FD21022B40519301604C216E2
:100C5F008008300904C209800122756006D20FD2C4
:100C6F0010D21122B40613120A9C300704C2078057
:100C7F000122756007D20FD21022B4070810140298
:100C8F008003020BC922C0E0C006C007E560B401B3
:100C9F00327880120CD98F4B754C00754D00754E04
:100CAF00007889120CD98F4F75500075510075520D
:100CBF00007884120CED8F338E32788D120CED8FFD
:100CCF00358E34D007D006D0E0227F00E6600EC309
:100CDF009430FDEF75F00AA42DFF0880EF22E6C3D4
:100CEF00943075F00AA4FD08E6C394302DFD08E694
:100CFF00C3943075F00AA4FC08E6C394302CFCEDC5
:100D0F00FFECFE22120E8850FB22C0E0E560B4011A
:100D1F004C43805530800C30821430841C30862434
:100D2F00D0E022120D137561017562008021120D42
:100D3F00137561027562008016120D1375610375CC
:100D4F006200800B120D1375610475620080003014
:100D5F0080FD3082FD3084FD3086FDD221D0E0222F
:100D6F00E560B40152E561604E120DC75049EFB412
:100D7F000E09120ECBD22175620022EFB40C0122A4
:100D8F00EFC3940A5030EF2430FD12092EE562288C
:100D9F00F8EDF60562E561B401028005B4030B803E
:100DAF0000E562B4030D15628009E562B404041511
:100DBF00628000D221222222C292C294C296C2A085
:100DCF00A2A282A482A682B05002C322120D13A245
:100DDF00A282A482A682B05002C322D292D294D20F
:100DEF0096D2A0C29230A23D30A43E30A63F30B082
:100DFF0040D292C29430A23D30A43E30A63F30B0D4
:100E0F0040D294C29630A23D30A43E30A63F30B0BF
:100E1F0040D296C2A030A23D30A43E30A63F30B0A3
:100E2F0040D2A0C3227F01803C7F0280387F0380A5
:100E3F00347F0A80307F04802C7F0580287F0680D6
:100E4F00247F0B80207F07801C7F0880187F0980FC
:100E5F00147F0D80107F0E800C7F0080087F0C8028
:100E6F00047F0F8000A2A282A482A682B050F6D384
:100E7F00D292D294D296D2A02220170E301804C24A
:100E8F0018D322755700D217C322C3227880120EAF
:100E9F00B07889120EB07884120EBC788D120EBC09
:100EAF0022763008763008763008760022763008C1
:100EBF00763008763008763008760022E561B40186
:100ECF00067880120EB022B402067884120EBC226D
:100EDF00B403067889120EB022788D120EBC22123E
:100EEF000E88505975A180000075A1007DFA000091
:100EFF00DDFC85A23A85A33B753C00753D00E53BC3
:100F0F00540FF53B753E88753F13754000754100D2
:100F1F0012018C753EFF753F0F7540007541001231
:100F2F000280753E0A753F00754000754100120240
:100F3F0080853A47853B48853C49853D4A2275580F
:100F4F0000755900755A00755B00E560B4020280A8
:100F5F0016B4030520050F801BB404028009B405E5
:100F6F0005200602800E227558DC755905755A004A
:100F7F00755B002275582C755901755A00755B0009
:100F8F0022C2AF7581C078FA79FFD9FED8FA759A67
:100F9F00AA759BFE759C01759D0075E800759500FF
:100FAF00D2AF7568007560007561007567007530A8
:100FBF0000753100753200753300753400753500DA
:100FCF00753600753700753800753900755C00751A
:100FDF005D00755E00755F00755B00755A00755991
:100FEF00027558EE756A00756C00756900756B00B7
:100FFF00C295C212C20BC214C215C216C201C204DC
:10100F00C20EC205C208C206C209C207C210C2116F
:10101F00C20DC222D20FD2131204561204BE1205F1
:10102F008B120E9B1204701209B3120BC5120945D5
:10103F0012097D120EEE120F4D120A0F120C95129D
:10104F00080D120D19120D6F12063B1207DE120A50
:07105F0031120B07021036ED
:00000001FF
