:0300000002099A58
:0100030032CA
:03000B0002046983
:0100130032BA
:01001B0032B2
:0100230032AA
:03002B000204D4F8
:10002E00C0E0C0D0C000C001C002C035C034C03373
:10003E00C032E4F53AF53BF53CF53DF53E7A20E568
:10004E0035A2E779047832E633F608D9FA790578DD
:10005E003AE636D4F608D9F9DAE5D032D033D034D0
:10006E00D035D002D001D000D0D0D0E022C0E0C038
:10007E00D0C000C001C002C03EC03DC03CC03BC0AD
:10008E003A7A207905C3783EE613C0D030E70224D1
:10009E00D030E30224FDF618D0D0D9EC79047835AF
:1000AE00E613F618D9FADADBD200E53A7002C2008E
:1000BE00D03AD03BD03CD03DD03ED002D001D00083
:1000CE00D0D0D0E022C0E0C0D0E5322536F532E502
:1000DE00333537F533E5343538F534E5353539F51F
:1000EE00359200D0D0D0E022C0E0C0D0C3E532952A
:1000FE0036F532E5339537F533E5349538F534E595
:10010E00359539F5359200D0D0D0E022C0E0C0D080
:10011E00C3E5329536E5339537E5349538E53595B3
:10012E00399200D0D0D0E022C0E0C0D0C3E53695E1
:10013E0032E5379533E5389534E53995359200D06B
:10014E00D0D0E022C0E0C0D0C200C3E536953270F8
:10015E0014E5379533700EE53895347008E539950A
:10016E00357002D200D0D0D0E0221201522000030E
:10017E000201362212015220000302011A22C0E0AF
:10018E00C0F0C0D0C000C001C002C003C004C00592
:10019E00E5328536F0A4F8A9F0E5338536F0A429CA
:1001AE00F9E435F0FAE5328537F0A429F9E5F03AAD
:1001BE00FAE433FBE5348536F0A42AFAE5F03BFB8E
:1001CE00E5338537F0A42AFAE5F03BFBE5328538B6
:1001DE00F0A42AFAE5F03BFBE5358536F0A42BFBBF
:1001EE00ACF07D00E5348537F0A42BFBE5F03CFC4C
:1001FE00E43DFDE5338538F0A42BFBE5F03CFCE453
:10020E003DFDE5328539F0A42BFBE5F03CFCE43DE9
:10021E00FDEC4DFCE5358537F0A445F04CFCE5349E
:10022E008538F0A445F04CFCE5338539F0A445F053
:10023E004CFCE5358538F0A445F04CFCE5348539A9
:10024E00F0A445F04CFCE5358539F0A445F04CFCA6
:10025E008B358A3489338832D200BC0002C200D07A
:10026E0005D004D003D002D001D000D0D0D0F0D031
:10027E00E022C0E0C0D0C000C001C002C003C00474
:10028E00E5364537453845397005D2000202EBC2D6
:10029E00007C20E4F8F9FAFBC3E53233F532E5339E
:1002AE0033F533E53433F534E53533F535E833F8E6
:1002BE00E933F9EA33FAEB33FBC3E89536E99537C0
:1002CE00EA9538EB95394013E89536F8E99537F904
:1002DE00EA9538FAEB9539FB433201DCBBD004D0FA
:1002EE0003D002D001D000D0D0D0E02285323685A6
:1002FE00333785343885353922E532C536F532E562
:10030E0033C537F533E534C538F534E535C539F53C
:02031E00352286
:10032000696E697469616C206D65737361676500DE
:1003300057656C636F6D65202020202020202000F1
:1003400050726573732050423020202020202000FE
:1003500053656C656374204D6F64653A20202020DE
:100360000053657420536F616B2054656D702020BD
:10037000200053657420536F616B2054696D6520B4
:10038000202000536574205265666C6F7720546599
:100390006D702000536574205265666C6F77205431
:1003A000696D65200053657420506172616D6574DC
:1003B0006572732000536F616B2054656D703A0055
:1003C0005265666C6F772054656D703A00536F61AB
:1003D0006B2054696D653A005265666C6F772054E6
:1003E000696D653A0052616D7020746F20536F61C2
:1003F0006B20202000536F616B2050686173652073
:10040000202020200052616D7020746F205265669C
:100410006C6F7720005265666C6F7720506861734F
:100420006520202000436F6F6C696E6720202020BC
:10043000202020200050726F6365737320446F6E1C
:100440006520202000202020202020202020202087
:10045000202020202000E58954F04401F589758C86
:10046000FD758A5AD2A9D28C22758CFD758A5AB232
:100470009532C28E53890F438920438780758DFD45
:10048000758BFDD28E7598522210990280FBF599DA
:1004900022E4936006120489A380F62274AA12044F
:1004A000897455120489E535120489E534120489EA
:1004B000E533120489E532120489740A1204892290
:1004C00075C80075CDF575CC2775CBF575CA27D2E3
:1004D000ADD2CA22C0E0C0D0C2CF055F0560D20253
:0504E000D0D0D0E03295
:1004E500C00078BE00000000D8FAD00022C000C0CD
:1004F50001793278DFD8FED9FADAF6D001D00022B8
:10050500D2911204E5C2911204E522A2E79281A2DA
:10051500E69283A2E59285A2E49287120505A2E3FD
:100525009281A2E29283A2E19285A2E092871205CE
:100535000522D297020510C297020510C291C0028A
:100545007A281204F2D002743312053C7433120572
:100555003C743212053C742812053C740C12053C9F
:10056500740112053CC0027A021204F2D00222E4A0
:10057500936006120537A380F622444044800205A5
:100585003CC0E0E8C4540F4430120537E8540F442A
:1005950030120537D0E022C0F9A4B0999282F880D4
:1005A500908883C6A1868E90059CE8C4540F93F568
:1005B50092E8540F93F5912290059CE8C4540F934B
:1005C500F594E8540F93F5932290059CE8C4540FD5
:1005D50093F58FE8540F93F58E2275F06484F9E551
:1005E500F075F00A84C454F045F0F822C0E0300CF0
:1005F5000AC20CE563B40106D0E022D0E022B400C3
:100605003BC0E0740114120581D0E0C083C082C0F4
:10061500E0900330120574D0E0D082D083C0E0743E
:10062500011412057FD0E0C083C082C0E090034072
:10063500120574D0E0D082D08302072FB4011FC009
:10064500E0740114120581D0E0C083C082C0E0903F
:1006550003A5120574D0E0D082D08302072FB4021F
:100665001FC0E0740114120581D0E0C083C082C0B0
:10067500E09003E5120574D0E0D082D08302072F05
:10068500B4031FC0E0740114120581D0E0C083C01B
:1006950082C0E09003F5120574D0E0D082D08302C9
:1006A500072FB4041FC0E0740114120581D0E0C007
:1006B50083C082C0E0900405120574D0E0D082D0DA
:1006C5008302072FB4051FC0E0740114120581D001
:1006D500E0C083C082C0E0900415120574D0E0D05C
:1006E50082D08302072FB4061FC0E07401141205DF
:1006F50081D0E0C083C082C0E0900425120574D08B
:10070500E0D082D08302072FB4071FC0E074011424
:10071500120581D0E0C083C082C0E0900435120587
:1007250074D0E0D082D08302072FD0E022E561B4F7
:10073500000A20F92D755F0005618026B40109E5E1
:100745005FB4321E0561801AB4020C20F9040561FC
:100755008010756100800BB4030830F905D20D7562
:10076500610022E562B4000CE560B4FA47756000EB
:1007750005628040B4010ED2E9E560B4FA367560D1
:10078500000562802FB4020ED2EAE560B4FA257541
:1007950060000562801EB4031BD2EBE560B4FA1459
:1007A500756000756200E530B43B05753000800466
:1007B5000530B2E8221002028071C200855B3285E5
:1007C5005C33855D34855E357536DB753705753883
:1007D5000075390012015220001D7536017537006C
:1007E5007538007539001200D385325B85335C8519
:1007F500345D85355E8018753200753300753400BB
:1008050075350085325B85335C85345D85355E8560
:100815005736855837855938855A3912011A2000B7
:1008250006C293C2EC8004D293D2EC22C203C20466
:10083500C0E0C0D0C000C001C002783F79321208C4
:10084500B7784379361208B712011A200002D2038D
:10085500783F79321208B7784779361208B712010E
:100865001A200002D204D002D001D000D0D0D0E0AE
:1008750022C0E0C0D0C000C001C002784B7932125E
:1008850008B7784F79361208B712011A200002D23C
:1008950006784B79321208B7785379361208B712B1
:1008A500011A200002D207D002D001D000D0D0D04A
:1008B500E0227A04E6F70809DAFA22C0E0C0D0C0DF
:1008C50000C001C002200E3D300F3A784B7932123C
:1008D50008B775363C753700753800753900120153
:1008E5001A200021C20F783F79321208B7753632C7
:1008F50075370075380075390012011A300006D2B7
:100905000ED209C293D002D001D000D0D0D0E022BF
:10091500E5638005756300D20CB4001520900512BF
:100925000D8E8001220563756400120C70D20CE5F2
:1009350063B40116120AAE120AFA30900122120DA2
:100945008E120A3280000563D20CB4020B10122EEF
:10095500100301220563D20CB4030B1012201006FC
:1009650001220563D20CB4040B10121210040122EB
:100975000563D20CB4050B101204100701220563A0
:10098500D20CB4060F100501220563D20CB407047E
:1009950010108122227581C0759AAA759BFE759CDF
:1009A50001759D0075E800759500D2AF75610075FC
:1009B5006200756300756400755F007560007530D1
:1009C50000753100755B00755C00755D00755E0036
:1009D500755A007559007558027557EEC20EC20951
:1009E500C210C211C212C201C20BC203C206C204A6
:1009F500C207C205C20CD20CD20F1204561204C093
:100A0500120541120C1D120C7012047212073212DB
:100A15000D92120831120DE11208761208C0120764
:100A2500681209151205F11207BA020A1178661241
:100A35000A718F43754400754500754600786F123D
:100A45000A718F47754800754900754A00786A1222
:100A55000A858F4F8E507551007552007873120AB2
:100A6500858F538E54755500755600227F00E660BC
:100A75000EC39430FDEF75F00AA42DFF0880EF2218
:100A8500E6943075F00AA4FD08E694302DFD08E6DD
:100A9500943075F00AA4FC08E694302CED75F03C12
:100AA500A42CFFE5F03400FE2243805530800A3047
:100AB500821230841A30862222120C107564017558
:100AC50065008021120C1075640275650080161290
:100AD5000C10756403756500800B120C10756404A9
:100AE5007565008000120C703080FD3082FD308409
:100AF500FD3086FD22E5646050120B4F504BEFB47C
:100B05000E0A120C4D120C7075650022EFB40C0123
:100B150022EFC3940A5031EF2430FD120D77E565BD
:100B250028F8EDF60565E564B401028005B4030B0C
:100B35008000E565B4030D15658009E565B4040419
:100B450015658000120C70222222C292C294C296B0
:100B5500C2A0A2A282A482A682B05002C322120C15
:100B650010A2A282A482A682B05002C322D292D23F
:100B750094D296D2A0C29230A23D30A43E30A63F78
:100B850030B040D292C29430A23D30A43E30A63F50
:100B950030B040D294C29630A23D30A43E30A63F3C
:100BA50030B040D296C2A030A23D30A43E30A63F20
:100BB50030B040D2A0C3227F01803C7F0280387FC5
:100BC5000380347F0A80307F04802C7F0580287F56
:100BD5000680247F0B80207F07801C7F0880187F7C
:100BE5000980147F0D80107F0E800C7F0080087FA8
:100BF5000C80047F0F8000A2A282A482A682B0503E
:100C0500F6D3D292D294D296D2A022780F794A7A8C
:100C1500FADAFED9FAD8F6227866120C32786F1213
:100C25000C32786A120C3E7873120C3E227630082C
:100C350076300876300876002276300876300876E9
:100C45003008763008760022E564B401067866122D
:100C55000C3222B40206786A120C3E22B4030678DE
:100C65006F120C32227873120C3E22120D67C0E00F
:100C7500740114120581D0E0E564B40013C083C08B
:100C850082C0E0900350120574D0E0D082D0832258
:100C9500B40114C083C082C0E0900361120574D012
:100CA500E0D082D0838042B40214C083C082C0E009
:100CB500900372120574D0E0D082D0838042B403D1
:100CC50014C083C082C0E0900383120574D0E0D0C5
:100CD50082D0838014C083C082C0E0900394120543
:100CE50074D0E0D082D0838017C0E074011412055F
:100CF5007FD0E0120D77120D5D7443120537802CFD
:100D0500C0E074011412057FD0E0120D77E61205DC
:100D15003708E612053708743A120537E612053723
:100D250008E612053774731205378000E564B402CE
:100D350002800DB404028008E56524C012053C223A
:100D4500E565B4020104C394024005E5650480022B
:100D5500E56524C012053C22E660061205370880C9
:100D6500F722740112053C7A0A120C10740F120551
:100D75003C22E564B40103786622B40203786A2252
:100D8500B40303786F227873223090FD2275A18019
:100D9500120C1075A10085A23285A3337534007538
:100DA50035007536887537137538007539001201A9
:100DB5008C7536FF75370F7538007539001202804E
:100DC50075360A7537007538007539001202808549
:100DD500323F85334085344185354222755700754C
:100DE5005800755900755A00E563B402028016B4BF
:100DF500030520030F800EB404028009B405052005
:100E050004028001227557E8755803755900755A13
:020E15000022B9
:00000001FF
