:03000000020D43AB
:0100030032CA
:03000B0002046E7E
:0100130032BA
:01001B0032B2
:0100230032AA
:03002B000206B01A
:10002E00C0E0C0D0C000C001C002C035C034C03373
:10003E00C032E4F53AF53BF53CF53DF53E7A20E568
:10004E0035A2E779047832E633F608D9FA790578DD
:10005E003AE636D4F608D9F9DAE5D032D033D034D0
:10006E00D035D002D001D000D0D0D0E022C0E0C038
:10007E00D0C000C001C002C03EC03DC03CC03BC0AD
:10008E003A7A207905C3783EE613C0D030E70224D1
:10009E00D030E30224FDF618D0D0D9EC79047835AF
:1000AE00E613F618D9FADADBD201E53A7002C2018C
:1000BE00D03AD03BD03CD03DD03ED002D001D00083
:1000CE00D0D0D0E022C0E0C0D0E5322536F532E502
:1000DE00333537F533E5343538F534E5353539F51F
:1000EE00359201D0D0D0E022C0E0C0D0C3E5329529
:1000FE0036F532E5339537F533E5349538F534E595
:10010E00359539F5359201D0D0D0E022C0E0C0D07F
:10011E00C3E5329536E5339537E5349538E53595B3
:10012E00399201D0D0D0E022C0E0C0D0C3E53695E0
:10013E0032E5379533E5389534E53995359201D06A
:10014E00D0D0E022C0E0C0D0C201C3E536953270F7
:10015E0014E5379533700EE53895347008E539950A
:10016E00357002D201D0D0D0E0221201522001030C
:10017E000201362212015220010302011A22C0E0AE
:10018E00C0F0C0D0C000C001C002C003C004C00592
:10019E00E5328536F0A4F8A9F0E5338536F0A429CA
:1001AE00F9E435F0FAE5328537F0A429F9E5F03AAD
:1001BE00FAE433FBE5348536F0A42AFAE5F03BFB8E
:1001CE00E5338537F0A42AFAE5F03BFBE5328538B6
:1001DE00F0A42AFAE5F03BFBE5358536F0A42BFBBF
:1001EE00ACF07D00E5348537F0A42BFBE5F03CFC4C
:1001FE00E43DFDE5338538F0A42BFBE5F03CFCE453
:10020E003DFDE5328539F0A42BFBE5F03CFCE43DE9
:10021E00FDEC4DFCE5358537F0A445F04CFCE5349E
:10022E008538F0A445F04CFCE5338539F0A445F053
:10023E004CFCE5358538F0A445F04CFCE5348539A9
:10024E00F0A445F04CFCE5358539F0A445F04CFCA6
:10025E008B358A3489338832D201BC0002C201D078
:10026E0005D004D003D002D001D000D0D0D0F0D031
:10027E00E022C0E0C0D0C000C001C002C003C00474
:10028E00E5364537453845397005D2010202EBC2D5
:10029E00017C20E4F8F9FAFBC3E53233F532E5339D
:1002AE0033F533E53433F534E53533F535E833F8E6
:1002BE00E933F9EA33FAEB33FBC3E89536E99537C0
:1002CE00EA9538EB95394013E89536F8E99537F904
:1002DE00EA9538FAEB9539FB433201DCBBD004D0FA
:1002EE0003D002D001D000D0D0D0E02285323685A6
:1002FE00333785343885353922E532C536F532E562
:10030E0033C537F533E534C538F534E535C539F53C
:02031E00352286
:10032000696E697469616C206D65737361676500DE
:1003300057656C636F6D65202020202020202000F1
:1003400050726573732050423020202020202000FE
:1003500053656C656374204D6F64653A20202020DE
:100360000053657420536F616B2054656D702020BD
:10037000200053657420536F616B2054696D6520B4
:10038000202000536574205265666C6F7720546599
:100390006D702000536574205265666C6F77205431
:1003A000696D65200053657420506172616D6574DC
:1003B0006572732000536F616B2054656D703A0055
:1003C0005265666C6F772054656D703A00536F61AB
:1003D0006B2054696D653A005265666C6F772054E6
:1003E000696D653A0054656D703A200052616D7018
:1003F00020746F20536F616B20202000536F616B5E
:1004000020506861736520202020200052616D70AB
:1004100020746F205265666C6F7720005265666CA1
:100420006F7720506861736520202000436F6F6CE8
:10043000696E6720202020202020200050726F63EA
:1004400065737320446F6E652020200020202020DB
:1004500020202020202020202020202000E589545A
:10046000F04401F589758CFD758A5AD2A922758CE4
:10047000FD758A5AB29532C28E53890F4389204343
:100480008780758DFD758BFDD28E759852221099DF
:100490000280FBF59922E493600612048EA380F695
:1004A00022309806E599C298D322C322E5407031E4
:1004B0001204A1502CB40D0280F6B40A0FE53F24BB
:1004C00041F87600754001753F008015E53FB4277F
:1004D00005753F00800BE53F2441F8A6E0053F800D
:1004E000CF22E6F70809E6F70809E6F709770022C0
:1004F000E6F70809E6F70809E6F70809E6F70977D5
:100500000022E54070030206227540007841E6B4FF
:100510005302800302052A08E6B43A028003020669
:10052000220879801204E20206227841E6B44B02E6
:10053000800302054808E6B43A0280030206220856
:1005400079841204F00206227841E6B45202800354
:1005500002056608E6B43A02800302062208798999
:100560001204E20206227841E6B44C02800302053E
:100570008408E6B43A02800302062208798D120448
:10058000F00206227841E6B4430280030205C10866
:10059000E6B4460280030205C108E6B447028003C0
:1005A0000205C108E6B43A0280030205C108E6B4B8
:1005B000410280030205C1120E65C200D20D02067F
:1005C000227841E6B45202800302062208E6B455BE
:1005D00002800302062208E6B44E028003020622CD
:1005E00008E6B43A02800302062208E6B43102802B
:1005F0000302060BC20075920075930075300075FA
:100600003100D20DD210C20F020622B43002800394
:10061000020622C293D20A759200759300D20D028F
:1006200006222274AA12048E745512048EE5351225
:10063000048EE53412048EE53312048EE532120482
:100640008E740A12048E229003E512049685693294
:10065000856A33856B34856C3512002E7F00E53B4F
:10066000540F6007243012048E7F01E53AC4540F02
:100670007003EF600CE53AC4540F243012048E7FEF
:1006800001E53A540F243012048E744312048E7420
:100690000D12048E740A12048E2275C80075CDF5F1
:1006A00075CC2775CBF575CA27C2CFD2ADD2CA2279
:1006B000C0E0C0D0C2CF058E058FD203D214D21FA6
:1006C00030170B0575E575B41904D218C217301927
:1006D0000B0576E576B41904D21AC219301B0B0546
:1006E00077E577B41904D21CC21B301D0B0578E5E1
:1006F00078B41904D21EC21D30150B0579E579B402
:0B0700001904D216C215D0D0D0E03290
:10070B00C00078BE00000000D8FAD00022C000C0A4
:10071B0001793278DFD8FED9FADAF6D001D000228F
:10072B00D29112070BC29112070B22A2E79281A260
:10073B00E69283A2E59285A2E4928712072BA2E3AD
:10074B009281A2E29283A2E19285A2E092871207A4
:10075B002B22D297020736C297020736C291C002EC
:10076B007A28120718D002743312076274331207F7
:10077B006274321207627428120762740C120762D9
:10078B007401120762C0027A02120718D00222E427
:10079B0093600612075DA380F62244404480020753
:1007AB0062C0E0E8C4540F443012075DE8540F44B4
:1007BB003012075DD0E022C0F9A4B0999282F88084
:1007CB00908883C6A1868E9007C2E8C4540F93F518
:1007DB0092E8540F93F591229007C2E8C4540F93FB
:1007EB00F594E8540F93F593229007C2E8C4540F85
:1007FB0093F58FE8540F93F58E2275F06484F9E529
:10080B00F075F00A84C454F045F0F822120805E89C
:10081B00C4540F243012075DE8540F243012075DC7
:10082B0022C0E0200D0302096AC20D1211A1E5924C
:10083B00B4003BC0E07401141207A7D0E0C083C022
:10084B0082C0E090033012079AD0E0D082D083C0F0
:10085B00E07401141207A5D0E0C083C082C0E09001
:10086B00034012079AD0E0D082D083020967B4010B
:10087B001FC0E07401141207A7D0E0C083C082C070
:10088B00E09003A512079AD0E0D082D083020967CB
:10089B00B4021FC0E07401141207A7D0E0C083C0DC
:1008AB0082C0E09003EC12079AD0E0D082D0830292
:1008BB00098AB4031FC0E07401141207A7D0E0C06B
:1008CB0083C082C0E09003FC12079AD0E0D082D0A4
:1008DB008302098AB4041FC0E07401141207A7D065
:1008EB00E0C083C082C0E090040C12079AD0E0D025
:1008FB0082D08302098AB4051FC0E0740114120769
:10090B00A7D0E0C083C082C0E090041C12079AD02D
:10091B00E0D082D08302098AB4061FC0E0740114B0
:10092B001207A7D0E0C083C082C0E090042C12074E
:10093B009AD0E0D082D08302098AB4071FC0E0743A
:10094B0001141207A7D0E0C083C082C0E090043C22
:10095B0012079AD0E0D082D0830209670209EB30EC
:10096B0002FAC202E592B402028014B40302800FB1
:10097B00B40402800AB405028005B406638000C08B
:10098B00E07401141207A5D0E0856932856A3385BE
:10099B006B34856C3512002E1209EEE53B540F2497
:1009AB003012075DE53AC4540F243012075DE53A67
:1009BB00540F243012075D744312075D7420120725
:1009CB005D12075DC0E0740C141207A5D0E0E53191
:1009DB00120817743A12075DE53012081712064712
:1009EB00D0E0229007C2E53B540F93F593E53AC450
:1009FB00540F93F592E53A540F93F59122E590B489
:100A0B00000A20F92D758E0005908026B40109E5AA
:100A1B008EB4321E0590801AB4020C20F904059096
:100A2B008010759000800BB4030830F905D20E7559
:100A3B00900022E591B4000CE58FB4FA4B758F0052
:100A4B0005918044B4010ED2E9E58FB4FA3A758F63
:100A5B000005918033B4020ED2EAE58FB4FA297502
:100A6B008F0005918022B4031FD2EBE58FB4FA18E7
:100A7B00758F00759100D202E530B43B07753000DD
:100A8B00053180040530B2E8221003028071C201E7
:100A9B00858A32858B33858C34858D357536DB7540
:100AAB00370575380075390012015220011D753656
:100ABB00017537007538007539001200D385328AFD
:100ACB0085338B85348C85358D8018753200753365
:100ADB000075340075350085328A85338B85348CEF
:100AEB0085358D8586368587378588388589391292
:100AFB00011A200106C293C2EC8004D293D2EC22DD
:100B0B00C204C205C0E0C0D0C000C001C0027869F9
:100B1B007932120B91786D7936120B9112011A20E2
:100B2B000102D20478697932120B917871793612FD
:100B3B000B9112011A200102D205D002D001D00074
:100B4B00D0D0D0E022C0E0C0D0C000C001C002783D
:100B5B007A7932120B91787E7936120B9112011A37
:100B6B00200102D207787A7932120B91788279368A
:100B7B00120B9112011A200102D208D002D001D01F
:100B8B0000D0D0D0E0227A04E6F70809DAFA22C0C6
:100B9B00E0C0D0C000C001C002E592B402028003E5
:100BAB00020BF9200F48301045787A7932120B91ED
:100BBB0075363C75370075380075390012011A20EF
:100BCB0001DEC21078697932120B917536327537A6
:100BDB000075380075390012011A3001C3C293D267
:100BEB000FD20A120C0E759200759300D20DD00223
:100BFB00D001D000D0D0D0E022759D01800A759D28
:100C0B00058005759D0A8000C28C759E01759F003D
:100C1B0075A000D2A9D28C22301435C214E59E6087
:100C2B002F059FE59F700205A0E5A06023759F002F
:100C3B0075A000E59EB40106C28C759E0222159D1F
:100C4B00E59D6006759E01D28C22C28C759E00229A
:100C5B0022E5928005759200D20DB4001520900507
:100C6B001211CB80012205927593001210A9D20D9F
:100C7B00E592B40127120EE1120F2D2090081211EC
:100C8B00CB120E658001220592E592D20D120C0457
:100C9B00D210C20F753000753100C204B4021F3080
:100CAB001305C213020D1A300413C2040592E59208
:100CBB00D20D120C04753000753100C20722B4033B
:100CCB0015301305C213020D1A300709C20705921E
:100CDB00D20D120C0422B4041D301305C213020DE5
:100CEB001A300511C2050592D20D120C0475300095
:100CFB00753100C20822B405028003020D213013A6
:100D0B0005C213020D1A300805C208020D1A22057E
:100D1B0092D20D120C09B4060A300606C2060592D1
:100D2B00D20D22B4071120110920900B1211CB0206
:100D3B000C60C211020C6022C2AF7581C078FA79C7
:100D4B00FFD9FED8FA759AAA759BFE759C01759D05
:100D5B004075E800759500D2AF75900075910075E0
:100D6B009200759300758E00758F0075300075318C
:100D7B0000758A00758B00758C00758D0075890068
:100D8B007588007587027586EEC20FC20AC211C242
:100D9B0012C213C202C20CC204C207C205C208C2ED
:100DAB0006C20DC21FC200D20DD210759E00759DDA
:100DBB0000759F0075A000C214C28C12045D120650
:100DCB009A1207671210561210A9120477753F007A
:100DDB007540001204AC12050230B70280030211F9
:100DEB00D3120A081211D9120B0B12131B853132B5
:100DFB0075330075340075350075363C75370075E5
:100E0B00380075390012018C85303675370075380E
:100E1B00007539001200D385327A85337B85347C9B
:100E2B0085357D120B50120B9A120A3E120C5C1276
:100E3B00082C300302D214120A94120C231212AE95
:100E4B00020DDEC28CC293120EE1120F2D200D0289
:100E5B008005C20D1210A9020DDE7880120EA48F30
:100E6B006D756E00756F007570007889120EA48F0A
:100E7B00717572007573007574007884120EB88FDB
:100E8B007E8E7F758000758100788D120EB88F82F3
:100E9B008E83758400758500227F00E6600EC394F7
:100EAB0030FDEF75F00AA42DFF0880EF22E6943099
:100EBB0075F00AA4FD08E694302DFD08E694307514
:100ECB00F00AA4FC08E694302CED75F03CA42CFF42
:100EDB00E5F03400FE2243805530800A3082123018
:100EEB00841A3086222212119B759301759C008007
:100EFB002112119B759302759C00801612119B7524
:100F0B009303759C00800B12119B759304759C00C9
:100F1B0080003080FD3082FD3084FD3086FD121064
:100F2B00A922E5936050120F82504BEFB40E0A12B8
:100F3B0010861210A9759C0022EFB40C0122EFC38E
:100F4B00940A5031EF2430FD1211B4E59C28F8EDD2
:100F5B00F6059CE593B401028005B4030B8000E514
:100F6B009CB4030D159C8009E59CB40404159C806E
:100F7B00001210A9222222C292C294C296C2A0A22F
:100F8B00A282A482A682B05002C32212119BA2A2FB
:100F9B0082A482A682B05002C322D292D294D2965D
:100FAB00D2A0C29230A23D30A43E30A63F30B0401A
:100FBB00D292C29430A23D30A43E30A63F30B04016
:100FCB00D294C29630A23D30A43E30A63F30B04002
:100FDB00D296C2A030A23D30A43E30A63F30B040E6
:100FEB00D2A0C3227F01803C7F0280387F038034F4
:100FFB007F0A80307F04802C7F0580287F06802429
:10100B007F0B80207F07801C7F0880187F0980144E
:10101B007F0D80107F0E800C7F0080087F0C80047A
:10102B007F0F8000A2A282A482A682B050F6D3D2F8
:10103B0092D294D296D2A02220150E301604C2164C
:10104B00D322757900D215C322C322788012106B7C
:10105B00788912106B7884121077788D12107722A2
:10106B0076300876300876300876002276300876AF
:10107B003008763008763008760022E593B4010606
:10108B00788012106B22B40206788412107722B487
:10109B000306788912106B22788D121077221211A9
:1010AB00A1C0E07401141207A7D0E0E593B40013BC
:1010BB00C083C082C0E090035012079AD0E0D08268
:1010CB00D08322B40114C083C082C0E090036112AC
:1010DB00079AD0E0D082D0838042B40214C083C080
:1010EB0082C0E090037212079AD0E0D082D0838046
:1010FB0042B40314C083C082C0E090038312079AEA
:10110B00D0E0D082D0838014C083C082C0E0900333
:10111B009412079AD0E0D082D0838017C0E074017C
:10112B00141207A5D0E01211B412119174431207D7
:10113B005D8027C0E07401141207A5D0E01211B432
:10114B00E612075D08E612075D08743A12075DE6C2
:10115B0012075D08E612075D8000E593B40202807A
:10116B000DB404028008E59C24C012076222E59CA2
:10117B00B4020104C394024005E59C048002E59C83
:10118B0024C012076222E6600612075D0880F72270
:10119B0012104350FB22740112076278FF79FFD9BA
:1011AB00FED8FA740C12076222E593B4010378801F
:1011BB0022B40203788422B40303788922788D2227
:1011CB003090FD2230B7FD221211CF020D431210C9
:1011DB0043400122E5885410C0E0C28C75A1800009
:1011EB000075A1017DFA0000DDFC85A23285A333D9
:1011FB00753400753500E533540FF533D0E06002DC
:10120B00D28C75361675371075380075390012018A
:10121B008C75A10485A23685A33775380075390006
:10122B0075A100120280753664753700753800752C
:10123B00390012018C75362B7537057538007539E9
:10124B000012028075361475370075380075390039
:10125B001200D385326985336A85346B85356C22F0
:10126B00758600758700758800758900E592B40254
:10127B00028016B4030520040F801BB404028009FE
:10128B00B40505200502800E227586DC7587057571
:10129B0088007589002275862C7587017588007505
:1012AB00890022E592B40004C220802CB40104D240
:1012BB00208025B40204C220801EB40304C2208007
:1012CB0017B40404C2208010B40504C2208009B4F2
:1012DB000604C2208002D220101F01221212EB2220
:1012EB00D2EDC0E0C0D0E5A104B414027400F5A1A6
:1012FB00202009E5A1C39402400B800DE5A1C39406
:10130B000140028004D2B68002C2B6D0D0D0E02217
:10131B00E592B4000F758600758700758800758996
:10132B00000214C7B4010F7586007587007588001D
:10133B007589000214C7B4020F7586DC75870575B5
:10134B0088007589000214C7B40302800302148558
:10135B00856D32856E33856F34857035856936853D
:10136B006A37856B38856C39C20112017810012BF5
:10137B00C221856D36856E37856F388570398569E5
:10138B0032856A33856B34856C351200F685329461
:10139B008533958534968535978011D2211200F6C9
:1013AB00853294853395853496853597859432852A
:1013BB0095338596348597357536057537007538B1
:1013CB000075390012018C85329885339985349AD2
:1013DB0085359B302129859832859933859A3485BB
:1013EB009B3575362C753701753800753900120031
:1013FB00D385329885339985349A85359B803D7595
:10140B00322C753301753400753500859836859906
:10141B0037859A38859B39C20112011A30010E7536
:10142B009800759900759A00759B00800F1200F655
:10143B0085329885339985349A85359B8598328585
:10144B009933859A34859B357536DC753705753838
:10145B0000753900C20112013620010F859886856F
:10146B009987859A88859B890214C77586DC758751
:10147B00057588007589000214C7B4040F7586DCE6
:10148B007587057588007589000214C7B4050F753B
:10149B00862C7587017588007589000214C7B40600
:1014AB000F7586007587007588007589000214C753
:0D14BB007586007587007588007589002210
:00000001FF
