:03000000020D4BA3
:0100030032CA
:03000B0002046E7E
:0100130032BA
:01001B0032B2
:0100230032AA
:03002B000206B812
:10002E00C0E0C0D0C000C001C002C035C034C03373
:10003E00C032E4F53AF53BF53CF53DF53E7A20E568
:10004E0035A2E779047832E633F608D9FA790578DD
:10005E003AE636D4F608D9F9DAE5D032D033D034D0
:10006E00D035D002D001D000D0D0D0E022C0E0C038
:10007E00D0C000C001C002C03EC03DC03CC03BC0AD
:10008E003A7A207905C3783EE613C0D030E70224D1
:10009E00D030E30224FDF618D0D0D9EC79047835AF
:1000AE00E613F618D9FADADBD201E53A7002C2018C
:1000BE00D03AD03BD03CD03DD03ED002D001D00083
:1000CE00D0D0D0E022C0E0C0D0E5322536F532E502
:1000DE00333537F533E5343538F534E5353539F51F
:1000EE00359201D0D0D0E022C0E0C0D0C3E5329529
:1000FE0036F532E5339537F533E5349538F534E595
:10010E00359539F5359201D0D0D0E022C0E0C0D07F
:10011E00C3E5329536E5339537E5349538E53595B3
:10012E00399201D0D0D0E022C0E0C0D0C3E53695E0
:10013E0032E5379533E5389534E53995359201D06A
:10014E00D0D0E022C0E0C0D0C201C3E536953270F7
:10015E0014E5379533700EE53895347008E539950A
:10016E00357002D201D0D0D0E0221201522001030C
:10017E000201362212015220010302011A22C0E0AE
:10018E00C0F0C0D0C000C001C002C003C004C00592
:10019E00E5328536F0A4F8A9F0E5338536F0A429CA
:1001AE00F9E435F0FAE5328537F0A429F9E5F03AAD
:1001BE00FAE433FBE5348536F0A42AFAE5F03BFB8E
:1001CE00E5338537F0A42AFAE5F03BFBE5328538B6
:1001DE00F0A42AFAE5F03BFBE5358536F0A42BFBBF
:1001EE00ACF07D00E5348537F0A42BFBE5F03CFC4C
:1001FE00E43DFDE5338538F0A42BFBE5F03CFCE453
:10020E003DFDE5328539F0A42BFBE5F03CFCE43DE9
:10021E00FDEC4DFCE5358537F0A445F04CFCE5349E
:10022E008538F0A445F04CFCE5338539F0A445F053
:10023E004CFCE5358538F0A445F04CFCE5348539A9
:10024E00F0A445F04CFCE5358539F0A445F04CFCA6
:10025E008B358A3489338832D201BC0002C201D078
:10026E0005D004D003D002D001D000D0D0D0F0D031
:10027E00E022C0E0C0D0C000C001C002C003C00474
:10028E00E5364537453845397005D2010202EBC2D5
:10029E00017C20E4F8F9FAFBC3E53233F532E5339D
:1002AE0033F533E53433F534E53533F535E833F8E6
:1002BE00E933F9EA33FAEB33FBC3E89536E99537C0
:1002CE00EA9538EB95394013E89536F8E99537F904
:1002DE00EA9538FAEB9539FB433201DCBBD004D0FA
:1002EE0003D002D001D000D0D0D0E02285323685A6
:1002FE00333785343885353922E532C536F532E562
:10030E0033C537F533E534C538F534E535C539F53C
:02031E00352286
:10032000696E697469616C206D65737361676500DE
:1003300057656C636F6D65202020202020202000F1
:1003400050726573732050423020202020202000FE
:1003500053656C656374204D6F64653A20202020DE
:100360000053657420536F616B2054656D702020BD
:10037000200053657420536F616B2054696D6520B4
:10038000202000536574205265666C6F7720546599
:100390006D702000536574205265666C6F77205431
:1003A000696D65200053657420506172616D6574DC
:1003B0006572732000536F616B2054656D703A0055
:1003C0005265666C6F772054656D703A00536F61AB
:1003D0006B2054696D653A005265666C6F772054E6
:1003E000696D653A0054656D703A200052616D7018
:1003F00020746F20536F616B20202000536F616B5E
:1004000020506861736520202020200052616D70AB
:1004100020746F205265666C6F7720005265666CA1
:100420006F7720506861736520202000436F6F6CE8
:10043000696E6720202020202020200050726F63EA
:1004400065737320446F6E652020200020202020DB
:1004500020202020202020202020202000E589545A
:10046000F04401F589758CFD758A5AD2A922758CE4
:10047000FD758A5AB29532C28E53890F4389204343
:100480008780758DFD758BFDD28E759852221099DF
:100490000280FBF59922E493600612048EA380F695
:1004A00022309806E599C298D322C322E5407031E4
:1004B0001204A1502CB40D0280F6B40A0FE53F24BB
:1004C00041F87600754001753F008015E53FB4277F
:1004D00005753F00800BE53F2441F8A6E0053F800D
:1004E000CF22E6F70809E6F70809E6F709770022C0
:1004F000E6F70809E6F70809E6F70809E6F70977D5
:100500000022E540700302062A7540007841E6B4F7
:100510005302800302052C08E6B43A028003020667
:100520002A08D20079801204E202062A7841E6B451
:100530004B02800302054C08E6B43A02800302062F
:100540002A08D20079841204F002062A7841E6B41F
:100550005202800302056C08E6B43A0280030206E8
:100560002A08D20079891204E202062A7841E6B408
:100570004C02800302058C08E6B43A0280030206AE
:100580002A08798DD2001204F002062A7841E6B4D6
:10059000430280030205C908E6B44602800302054F
:1005A000C908E6B4470280030205C908E6B43A0266
:1005B00080030205C908E6B4410280030205C9129E
:1005C0000E6EC200D20D02062A7841E6B4520280B5
:1005D0000302062A08E6B45502800302062A08E64A
:1005E000B44E02800302062A08E6B43A02800302EF
:1005F000062A08E6B431028003020613C20075928F
:1006000000759300753000753100D20DD210C20F05
:1006100002062AB43002800302062AC293D20A7567
:100620009200759300D20D02062A2274AA12048E3B
:10063000745512048EE53512048EE53412048EE5ED
:100640003312048EE53212048E740A12048E229044
:1006500003E5120496856932856A33856B34856CAF
:100660003512002E7F00E53B540F60072430120442
:100670008E7F01E53AC4540F7003EF600CE53AC475
:10068000540F243012048E7F01E53A540F243012A7
:10069000048E744312048E740D12048E740A1204B4
:1006A0008E2275C80075CDF575CC2775CBF575CA4A
:1006B00027C2CFD2ADD2CA22C0E0C0D0C2CF058EF1
:1006C000058FD203D214D21F30170B0575E575B410
:1006D0001904D218C21730190B0576E576B419043F
:1006E000D21AC219301B0B0577E577B41904D21C56
:1006F000C21B301D0B0578E578B41904D21EC21D4B
:1007000030150B0579E579B41904D216C215D0D08D
:03071000D0E03204
:10071300C00078BE00000000D8FAD00022C000C09C
:1007230001793278DFD8FED9FADAF6D001D0002287
:10073300D291120713C29112071322A2E79281A248
:10074300E69283A2E59285A2E49287120733A2E39D
:100753009281A2E29283A2E19285A2E0928712079C
:100763003322D29702073EC29702073EC291C002CC
:100773007A28120720D002743312076A74331207DF
:100783006A743212076A742812076A740C12076AB1
:10079300740112076AC0027A02120720D00222E40F
:1007A300936006120765A380F62244404480020743
:1007B3006AC0E0E8C4540F4430120765E8540F449C
:1007C30030120765D0E022C0F9A4B0999282F88074
:1007D300908883C6A1868E9007CAE8C4540F93F508
:1007E30092E8540F93F591229007CAE8C4540F93EB
:1007F300F594E8540F93F593229007CAE8C4540F75
:1008030093F58FE8540F93F58E2275F06484F9E520
:10081300F075F00A84C454F045F0F82212080DE88C
:10082300C4540F2430120765E8540F2430120765AF
:1008330022C0E0200D03020972C20D1211AAE59233
:10084300B4003BC0E07401141207AFD0E0C083C012
:1008530082C0E09003301207A2D0E0D082D083C0E0
:10086300E07401141207ADD0E0C083C082C0E090F1
:1008730003401207A2D0E0D082D08302096FB401F3
:100883001FC0E07401141207AFD0E0C083C082C060
:10089300E09003A51207A2D0E0D082D08302096FB3
:1008A300B4021FC0E07401141207AFD0E0C083C0CC
:1008B30082C0E09003EC1207A2D0E0D082D0830282
:1008C3000992B4031FC0E07401141207AFD0E0C053
:1008D30083C082C0E09003FC1207A2D0E0D082D094
:1008E30083020992B4041FC0E07401141207AFD04D
:1008F300E0C083C082C0E090040C1207A2D0E0D015
:1009030082D083020992B4051FC0E0740114120758
:10091300AFD0E0C083C082C0E090041C1207A2D015
:10092300E0D082D083020992B4061FC0E0740114A0
:100933001207AFD0E0C083C082C0E090042C12073E
:10094300A2D0E0D082D083020992B4071FC0E07422
:1009530001141207AFD0E0C083C082C0E090043C12
:100963001207A2D0E0D082D08302096F0209F330CC
:1009730002FAC202E592B402028014B40302800FA9
:10098300B40402800AB405028005B406638000C083
:10099300E07401141207ADD0E0856932856A3385AE
:1009A3006B34856C3512002E1209F6E53B540F2487
:1009B30030120765E53AC4540F2430120765E53A4F
:1009C300540F24301207657443120765742012070D
:1009D30065120765C0E0740C141207ADD0E0E53171
:1009E30012081F743A120765E53012081F12064FEA
:1009F300D0E0229007CAE53B540F93F593E53AC440
:100A0300540F93F592E53A540F93F59122E590B480
:100A1300000A20F92D758E0005908026B40109E5A2
:100A23008EB4321E0590801AB4020C20F90405908E
:100A33008010759000800BB4030830F905D20E7551
:100A4300900022E591B4000CE58FB4FA4B758F004A
:100A530005918044B4010ED2E9E58FB4FA3A758F5B
:100A63000005918033B4020ED2EAE58FB4FA2975FA
:100A73008F0005918022B4031FD2EBE58FB4FA18DF
:100A8300758F00759100D202E530B43B07753000D5
:100A9300053180040530B2E8221003028071C201DF
:100AA300858A32858B33858C34858D357536DB7538
:100AB300370575380075390012015220011D75364E
:100AC300017537007538007539001200D385328AF5
:100AD30085338B85348C85358D801875320075335D
:100AE3000075340075350085328A85338B85348CE7
:100AF30085358D858636858737858838858939128A
:100B0300011A200106C293C2EC8004D293D2EC22D4
:100B1300C204C205C0E0C0D0C000C001C0027869F1
:100B23007932120B99786D7936120B9912011A20CA
:100B33000102D20478697932120B997871793612ED
:100B43000B9912011A200102D205D002D001D00064
:100B5300D0D0D0E022C0E0C0D0C000C001C0027835
:100B63007A7932120B99787E7936120B9912011A1F
:100B7300200102D207787A7932120B99788279367A
:100B8300120B9912011A200102D208D002D001D00F
:100B930000D0D0D0E0227A04E6F70809DAFA22C0BE
:100BA300E0C0D0C000C001C002E592B402028003DD
:100BB300020C01200F48301045787A7932120B99D4
:100BC30075363C75370075380075390012011A20E7
:100BD30001DEC21078697932120B99753632753796
:100BE3000075380075390012011A3001C3C293D25F
:100BF3000FD20A120C16759200759300D20DD00213
:100C0300D001D000D0D0D0E022759D01800A759D1F
:100C1300058005759D0A8000C28C759E01759F0035
:100C230075A000D2A9D28C22301435C214E59E607F
:100C33002F059FE59F700205A0E5A06023759F0027
:100C430075A000E59EB40106C28C759E0222159D17
:100C5300E59D6006759E01D28C22C28C759E002292
:100C630022E5928005759200D20DB40015209005FF
:100C73001211D480012205927593001210B2D20D85
:100C8300E592B40127120EEA120F362090081211D2
:100C9300D4120E6E8001220592E592D20D120C0C35
:100CA300D210C20F753000753100C204B4021F3078
:100CB3001305C213020D22300413C2040592E592F8
:100CC300D20D120C0C753000753100C20722B4032B
:100CD30015301305C213020D22300709C20705920E
:100CE300D20D120C0C22B4041D301305C213020DD5
:100CF30022300511C2050592D20D120C0C7530007D
:100D0300753100C20822B405028003020D29301395
:100D130005C213020D22300805C208020D22220566
:100D230092D20D120C11B4060A300606C2060592C1
:100D3300D20D22B4071120110920900B1211D402F5
:100D43000C68C211020C6822C2AF7581C078FA79AF
:100D5300FFD9FED8FA759AAA759BFE759C01759DFD
:100D63004075E800759500D2AF75900075910075D8
:100D73009200759300758E00758F00753000753184
:100D830000758A00758B00758C00758D0075890060
:100D93007588007587027586EEC20FC20AC211C23A
:100DA30012C213C202C20CC204C207C205C208C2E5
:100DB30006C20DC21FD20DD210759E00759D00751F
:100DC3009F0075A000C214C28C12045D1206A21209
:100DD300076F12105F1210B2120477753F0075404F
:100DE300001204AC12050230B70280030211DC20AA
:100DF3000062120A101211E2120B1312132485312E
:100E03003275330075340075350075363C7537001F
:100E130075380075390012018C85303675370075C9
:100E230038007539001200D385327A85337B8534D7
:100E33007C85357D120B58120BA2120A46120C64E4
:100E4300120834300302D214120A9C120C2B121211
:100E5300B7020DE4C28CC293120EEA120F36200DB4
:100E6300028005C20D1210B2020DE47880120EAD9D
:100E73008F6D756E00756F007570007889120EADF9
:100E83008F717572007573007574007884120EC1CA
:100E93008F7E8E7F758000758100788D120EC18FD5
:100EA300828E83758400758500227F00E6600EC301
:100EB3009430FDEF75F00AA42DFF0880EF22E6942D
:100EC3003075F00AA4FD08E694302DFD08E6943051
:100ED30075F00AA4FC08E694302CED75F03CA42CC4
:100EE300FFE5F03400FE2243805530800A30821241
:100EF30030841A308622221211A4759301759C0046
:100F030080211211A4759302759C0080161211A4FE
:100F1300759303759C00800B1211A4759304759C43
:100F23000080003080FD3082FD3084FD3086FD126C
:100F330010B222E5936050120F8B504BEFB40E0AA0
:100F430012108F1210B2759C0022EFB40C0122EF25
:100F5300C3940A5031EF2430FD1211BDE59C28F8EB
:100F6300EDF6059CE593B401028005B4030B800004
:100F7300E59CB4030D159C8009E59CB40404159C01
:100F830080001210B2222222C292C294C296C2A040
:100F9300A2A282A482A682B05002C3221211A4A2EA
:100FA300A282A482A682B05002C322D292D294D249
:100FB30096D2A0C29230A23D30A43E30A63F30B0BC
:100FC30040D292C29430A23D30A43E30A63F30B00E
:100FD30040D294C29630A23D30A43E30A63F30B0FA
:100FE30040D296C2A030A23D30A43E30A63F30B0DE
:100FF30040D2A0C3227F01803C7F0280387F0380E0
:10100300347F0A80307F04802C7F0580287F068010
:10101300247F0B80207F07801C7F0880187F098036
:10102300147F0D80107F0E800C7F0080087F0C8062
:10103300047F0F8000A2A282A482A682B050F6D3BE
:10104300D292D294D296D2A02220150E301604C288
:1010530016D322757900D215C322C32278801210C9
:101063007478891210747884121080788D1210802D
:1010730022763008763008763008760022763008FB
:10108300763008763008763008760022E593B4018E
:1010930006788012107422B402067884121080221B
:1010A300B40306788912107422788D1210802212EC
:1010B30011AAC0E07401141207AFD0E0E593B400A5
:1010C30013C083C082C0E09003501207A2D0E0D0C7
:1010D30082D08322B40114C083C082C0E090036134
:1010E3001207A2D0E0D082D0838042B40214C0831E
:1010F300C082C0E09003721207A2D0E0D082D083F6
:101103008042B40314C083C082C0E09003831207FB
:10111300A2D0E0D082D0838014C083C082C0E0908C
:1011230003941207A2D0E0D082D0838017C0E0746A
:1011330001141207ADD0E01211BD12119A744312BB
:1011430007658027C0E07401141207ADD0E01211C7
:10115300BDE612076508E612076508743A120765CB
:10116300E612076508E61207658000E593B40202FC
:10117300800DB404028008E59C24C012076A22E5AE
:101183009CB4020104C394024005E59C048002E57B
:101193009C24C012076A22E660061207650880F7DE
:1011A3002212104C50FB22740112076A78FF79FF58
:1011B300D9FED8FA740C12076A22E593B4010378B6
:1011C3008022B40203788422B40303788922788DC1
:1011D300223090FD2230B7FD221211D8020D4B129E
:1011E300104C400122E5885410C0E0C28C75A180E8
:1011F300000075A1017DFA0000DDFC85A23285A304
:1012030033753400753500E533540FF533D0E060A2
:1012130002D28C7536167537107538007539001281
:10122300018C75A10485A23685A3377538007539FD
:101233000075A10012028075366475370075380099
:1012430075390012018C75362B75370575380075A5
:1012530039001202807536147537007538007539F8
:10126300001200D385326985336A85346B85356C0A
:1012730022758600758700758800758900E592B42C
:1012830002028016B4030520040F801BB4040280FD
:1012930009B40505200502800E227586DC758705D5
:1012A3007588007589002275862C758701758800FD
:1012B30075890022E592B40004C220802CB4010495
:1012C300D2208025B40204C220801EB40304C220AD
:1012D3008017B40404C2208010B40504C22080091E
:1012E300B40604C2208002D220101F01221212F47D
:1012F30022D2EDC0E0C0D0E5A104B414027400F51D
:10130300A1202009E5A1C39402400B800DE5A1C3F0
:10131300940140028004D2B68002C2B6D0D0D0E09D
:1013230022E592B4000F75860075870075880075F5
:1013330089000214D0B4010F758600758700758883
:10134300007589000214D0B4020F7586DC75870519
:101353007588007589000214D0B403028003021457
:101363008E856D32856E33856F348570358569362C
:10137300856A37856B38856C39C201120178100193
:101383002BC221856D36856E37856F38857039851B
:101393006932856A33856B34856C351200F6853284
:1013A300948533958534968535978011D221120023
:1013B300F6853294853395853496853597859432B1
:1013C300859533859634859735753605753700755C
:1013D300380075390012018C85329885339985342C
:1013E3009A85359B302129859832859933859A349E
:1013F300859B3575362C75370175380075390012A4
:1014030000D385329885339985349A85359B803D01
:1014130075322C7533017534007535008598368522
:101423009937859A38859B39C20112011A30010E0A
:10143300759800759900759A00759B00800F1200CE
:10144300F685329885339985349A85359B8598320C
:10145300859933859A34859B357536DC75370575E3
:101463003800753900C20112013620010F859886B4
:10147300859987859A88859B890214D07586DC7542
:1014830087057588007589000214D0B4040F75862A
:10149300DC7587057588007589000214D0B4050FC3
:1014A30075862C7587017588007589000214D0B480
:1014B300060F75860075870075880075890002140C
:0E14C300D07586007587007588007589002237
:00000001FF
